:100000000C9468010C9490010C9490010C94900154
:100010000C9490010C9490010C9490010C9490011C
:100020000C9490010C9490010C94D6070C94A206A9
:100030000C9490010C9490010C9490010C949001FC
:100040000C9490010C9490010C9490010C949001EC
:100050000C9490010C9490010C9490010C94FB0270
:100060000C9490010C9490010C9490010C949001CC
:100070000C9490010C9490010C9490010C949001BC
:100080000C9490010C9490010C9490010C949001AC
:100090000C9490010C9490010C9490010C9490019C
:1000A0000C9490010C9490010C949001FE030104B7
:1000B000F003F403FA0322042204220405040904D1
:1000C0000D041304170422041D040000000200099B
:1000D0000F0000030401000C0000000000000000FD
:1000E00000000000000000000408020110408040F1
:1000F000102040804080080204018040201002014E
:10010000108010204040040404040403040502028B
:1001100002020403020202020606060606060404A0
:100120000202020400000000250028002B002E001F
:10013000310000000000240027002A002D003000BC
:1001400000C18081C112010002020000404123373A
:100150008000010102000112010002000000404184
:1001600023378000010102000141726475696E6FDE
:10017000204C4C430041726475696E6F204D696379
:10018000726F0004030904080B0002020201000957
:1001900004000001020200000524001001052401F2
:1001A000010104240206052406000107058103104D
:1001B000004009040100020A000000070502024095
:1001C000000007058302400000000000000000005E
:1001D000002A2B28000000000000000000000000A2
:1001E0000000000000000000002C9EB4A0A1A2A40A
:1001F00034A6A7A5AE362D3738271E1F202122236F
:10020000242526B333B62EB7B89F84858687888980
:100210008A8B8C8D8E8F90919293949596979899C6
:100220009A9B9C9D2F3130A3AD3504050607080924
:100230000A0B0C0D0E0F10111213141516171819A6
:100240001A1B1C1DAFB1B0B5000904020001030068
:100250000000092101010001226500070584034017
:10026000000105010902A1010901A100850105099B
:1002700019012903150025019503750181029501D6
:100280007505810305010930093109381581257F7C
:10029000750895038106C0C005010906A101850204
:1002A000050719E029E71500250175019508810268
:1002B00095017508810395067508150025650507E4
:1002C000190029658100C000C9020A095D0ADB0224
:1002D00011241FBECFEFDAE0DEBFCDBF11E0A0E0FA
:1002E000B1E0E6EAF7E102C005900D92A233B10752
:1002F000D9F721E0A2E3B1E001C01D92AE3CB20704
:10030000E1F712E0CEECD2E004C02297FE010E9499
:10031000940AC83CD107C9F70E9493040C94C60BF9
:100320000C940000FF920F931F93CF93DF93EC0187
:10033000F22E798368838B01000F111F060F171FA0
:100340001B830A834C831D822B871C861D861E8679
:100350001F8650E0FA01EA5FFE4FE491F0E0EE0FF5
:10036000FF1FEC5DFE4F85919491998B888BFA016C
:10037000E851FF4F44914A8BC8010E94980A9F831D
:100380008E83009729F0A80160E070E00E94BF0B07
:10039000F0FE04C081E0888719860BC0F2FE06C01B
:1003A00081E0888782E089871A8605C0188681E007
:1003B000898782E08A87DF91CF911F910F91FF900B
:1003C0000895CF93DF93EC018E819F81009711F008
:1003D0000E94300B60E08C81DF91CF910C9423045C
:1003E000CF93DF93EC0161E08C810E94230460E0F5
:1003F0008C81DF91CF910C945C04CF92DF92EF92CD
:10040000FF920F931F93CF93DF93CDB7DEB729975A
:100410000FB6F894DEBF0FBECDBF8C01DC0116967F
:100420008D919C911797892B09F49BC00E944503DD
:10043000F801C484D584E684F7846C197D098E099B
:100440009F09623371058105910580F3F8948281DB
:1004500093819A838983A681B7817D01EFEFEE1A9C
:10046000FE0A8C918987D8011B969C911B97509608
:100470000D90BC91A02DF801828991FF2EC09C9116
:10048000982B98879C91809589238F838F818E8369
:1004900088E08D8358856F8149853D812E818981D2
:1004A0009A81F7015C9347FD252F3A952C93262FCF
:1004B00039F0441F00C000006C93000000C0F2CF70
:1004C00038E041916C930000019761F7F801B18B1E
:1004D000A08B49873D832E8338C09C91982B9887A9
:1004E0009C91809589238F838F818C8388E08B8377
:1004F00058856F8149853B812C8189819A81F701DB
:100500005C9347FD252F00C000C02C9300C000C0A5
:1005100000C000C000C06C930000262F3A9541F047
:10052000441F000000C000C000C000C000C0E8CFF1
:1005300038E0419100C06C9300C0019709F7F801C1
:10054000B18BA08B49873B832C839A8389837894D2
:100550000E944503D8011C966D937D938D939C93C7
:100560001F9729960FB6F894DEBF0FBECDBFDF915F
:10057000CF911F910F91FF90EF90DF90CF90089552
:1005800088E491E00E94F00188E491E00C94FD0180
:1005900008956091060170E023E04091070188E42E
:1005A00091E00E949201409108016091090182E36B
:1005B00091E00C94E30282E391E00E94E10188E47F
:1005C00091E00C94E1010F931F93CF93DF93EC0123
:1005D000062F142F23E044E068E770E00E949201A8
:1005E0000B8B1C8B019F102D11241D8BDF91CF9144
:1005F0001F910F9108951F920F920FB60F92112421
:100600002F933F938F939F93AF93BF9380915C0100
:1006100090915D01A0915E01B0915F0130915B010D
:1006200023E0230F2D3720F40196A11DB11D05C035
:1006300026E8230F0296A11DB11D20935B01809334
:100640005C0190935D01A0935E01B0935F01809186
:10065000600190916101A0916201B09163010196E6
:10066000A11DB11D8093600190936101A09362016F
:10067000B0936301BF91AF919F918F913F912F9163
:100680000F900FBE0F901F9018953FB7F894809170
:10069000600190916101A0916201B091630126B562
:1006A000A89B05C02F3F19F00196A11DB11D3FBFAA
:1006B0006627782F892F9A2F620F711D811D911D3A
:1006C00042E0660F771F881F991F4A95D1F708955A
:1006D000CF92DF92EF92FF92CF93DF936B017C0179
:1006E0000E944503EB01C114D104E104F10489F037
:1006F0000E944C080E9445036C1B7D0B683E7340B2
:1007000090F381E0C81AD108E108F108C851DC4F24
:10071000EACFDF91CF91FF90EF90DF90CF900895D7
:10072000789484B5826084BD84B5816084BD85B5CC
:10073000826085BD85B5816085BDEEE6F0E0808193
:1007400081608083E1E8F0E01082808182608083B4
:10075000808181608083E0E8F0E080818160808337
:10076000E1E9F0E080818260808380818160808324
:10077000E0E9F0E0808181608083E1ECF0E080815D
:1007800084608083808182608083808181608083B7
:10079000E3ECF0E0808181608083E0ECF0E0808138
:1007A00082608083E2ECF0E0808181608083EAE710
:1007B000F0E080818460808380818260808380819A
:1007C00081608083808180688083089590E0FC014F
:1007D0003197EF30F105B0F5EA5AFF4F0C94920AC9
:1007E000809180008F7703C0809180008F7D8093FF
:1007F0008000089580918000877FF9CF84B58F773E
:1008000002C084B58F7D84BD0895809190008F775C
:1008100007C0809190008F7D03C080919000877FFA
:100820008093900008958091C0008F7703C08091DD
:10083000C0008F7D8093C00008958091C200877FA3
:100840008093C2000895CF93DF9390E0FC01E851BC
:10085000FF4F2491FC01EA5FFE4F8491882349F108
:1008600090E0880F991FFC01EE5CFE4FA591B491BA
:100870008C5D9E4FFC01C591D4919FB7611108C05A
:10088000F8948C91209582238C93888182230AC0CE
:10089000623051F4F8948C91322F309583238C93ED
:1008A0008881822B888304C0F8948C91822B8C934E
:1008B0009FBFDF91CF9108950F931F93CF93DF9345
:1008C0001F92CDB7DEB7282F30E0F901E653FF4F76
:1008D0008491F901E851FF4F1491F901EA5FFE4F4D
:1008E00004910023C9F0882321F069830E94E60364
:1008F0006981E02FF0E0EE0FFF1FEC5DFE4FA59148
:10090000B4919FB7F8948C91611103C01095812325
:1009100001C0812B8C939FBF0F90DF91CF911F91CE
:100920000F91089508950E9490030E94920484E616
:1009300091E00E942C080E94C002C0E0D0E00E941A
:10094000C8022097E1F30E940000F9CF40916801AE
:100950005091690120916601309167014217530758
:10096000B4F49091E8009570E1F39091E80092FD65
:1009700019C08093F10080916801909169010196FE
:100980008F739927892B19F48EEF8093E80080915B
:1009900068019091690101969093690180936801C3
:1009A00081E0089580E00895CF92DF92FF920F9347
:1009B0001F93CF93DF931F92CDB7DEB7082F162F6B
:1009C000862F880F8E5F99830E94A60483E00E9481
:1009D000A604F02EC02E9981D92E8C2D8F19811747
:1009E00078F4F60184910E94A604082F80E00E940A
:1009F000A6048023FFEFCF1ADF0A8111EECF01C0DA
:100A000081E00F90DF91CF911F910F91FF90DF90C8
:100A1000CF900895615030F02091F100FC012083C7
:100A20000196F8CF289A84E680936B0108952FB73A
:100A3000FC012083F89467706093E9000895CF93D8
:100A4000DF931F92CDB7DEB7682FCE0101960E94CB
:100A500017058091F20099819FBF0F90DF91CF9190
:100A60000895FF920F931F93CF93DF9300D0CDB7DC
:100A7000DEB7F62E8A0190916A01992311F057FF93
:100A800003C08FEF9FEF2BC0682FCE0101967A83B2
:100A90000E9417058091F20090E0A8017A818017EA
:100AA00091070CF4AC01EF2DF72FF40E84E6FE163F
:100AB00039F0289A80936B019091F1009193F7CFD0
:100AC0004115510521F08091F200882321F08981A0
:100AD0008FBFCA0104C08BE68093E800F8CF0F9067
:100AE0000F90DF91CF911F910F91FF900895CF93B9
:100AF000DF931F92CDB7DEB741E050E0BE016F5FDC
:100B00007F4F0E943105019719F4898190E002C05E
:100B10008FEF9FEF0F90DF91CF910895CF93DF93E9
:100B20001F92CDB7DEB7682FCE0101960E94170540
:100B30009091E800892F807295FF04C09091F20097
:100B400080E4891B99819FBF0F90DF91CF91089519
:100B50006F927F928F929F92AF92BF92CF92DF92CD
:100B6000EF92FF920F931F93CF93DF931F92CDB716
:100B7000DEB7782E7B01C42EB52E80916A018823C2
:100B800069F0042F152F8AEFD82E872D8072982EAA
:100B90009AE3A92E872D8074882E11C08FEF9FEFC6
:100BA00057C0872D0E948E05682E81110CC0DA94E3
:100BB000A9F361E070E080E090E00E946803011515
:100BC000110579F73BC0282F30E0021713070CF40A
:100BD000602E672DCE0101960E9417058091E800D6
:100BE00085FF29C0262D30E0021B130B992039F018
:100BF0006A948FEF6816B1F01092F100F9CFF70107
:100C0000862D77FE07C0815058F094919093F100A3
:100C10003196F9CF815020F091919093F100FACF65
:100C2000E20EF31E8091E80085FF0FC0011511054B
:100C300011F481100AC089818FBFC1CF5D9A84E60B
:100C400080936C018C2D9B2D03C0A092E800F3CF04
:100C50000F90DF91CF911F910F91FF90EF90DF9058
:100C6000CF90BF90AF909F908F907F906F9008959E
:100C70001092E90010926901109268019093670147
:100C8000809366010895CF92DF92FF920F931F9396
:100C9000CF93DF9300D0CDB7DEB7F82E8A016B017A
:100CA00001151105B1F0F601F7FE02C0849101C0F3
:100CB000808149835A830E94A60401501109FFEFE5
:100CC000CF1ADF0A49815A818111EACF8FEF9FEF56
:100CD00001C0CA010F900F90DF91CF911F910F912A
:100CE000FF90DF90CF9008951F93CF93DF931F92D3
:100CF000CDB7DEB7162F2091E80022FFFCCF612F81
:100D000079830E940A058BEF8093E800812F798117
:100D1000972F0F90DF91CF911F910895CF93DF937D
:100D20001F92CDB7DEB71982CE0101960E94AA08A4
:100D3000CE0101960E944509898190E00F90DF91D4
:100D4000CF9108951F920F920FB60F921124EF9238
:100D5000FF920F931F932F933F934F935F936F9344
:100D60007F938F939F93AF93BF93EF93FF93CF9313
:100D7000DF93CDB7DEB76297DEBFCDBF1092E9003B
:100D80008091E80083FFEBC068E0CE010A960E94E4
:100D90000A0582EF8093E8009A8597FF05C080914D
:100DA000E80080FFFCCF03C08EEF8093E800892F1E
:100DB000807609F0B9C08B85811105C01092F100D1
:100DC0001092F100C5C0282F2D7F213009F4C0C03A
:100DD000853049F48091E80080FFFCCF8C858068E5
:100DE0008093E300B5C0863009F076C02D85E88891
:100DF000F988223071F580E090E02A8B0E94380655
:100E00000E948E0699E08E010F5F1F4FF801392F67
:100E100011923A95E9F799832A892A8391E09E8372
:100E200090E898879AEF998720916801309169013D
:100E3000275F3F4F3C832B838D83C7010E94380679
:100E400049E050E0B80180E00E9443060E948E060F
:100E50007FC0C7012A8B0E9438062A89223241F4BA
:100E600082E290E00E945009892B09F071C074C0A1
:100E7000213069F488899989089711F420936501D4
:100E800080916501811118C067E571E01AC02330B7
:100E900009F062C08C85882391F0823021F46DE0E6
:100EA00085E791E006C0813009F056C06BE089E625
:100EB00091E00E94D4044AC065E471E002C063E896
:100EC00071E06115710509F447C0FB01449150E0E0
:100ED00080E80E9443063CC0873009F43DC088305A
:100EE00021F481E08093F10033C0893089F593705B
:100EF00099F5E1E4F1E081E021E096E38093E900F7
:100F00002093EB0034913093EC009093ED008F5FD1
:100F10003196853099F78EE78093EA001092EA00C7
:100F20008C8580936A0114C0888999890E9438064B
:100F30008E85811105C0CE010A960E94B50806C0B3
:100F4000823051F4CE010A960E947809882321F05C
:100F50008EEF8093E80003C081E28093EB006296FD
:100F60000FB6F894DEBF0FBECDBFDF91CF91FF91DA
:100F7000EF91BF91AF919F918F917F916F915F9111
:100F80004F913F912F911F910F91FF90EF900F90F4
:100F90000FBE0F901F9018958093E9008091F2008A
:100FA000882319F08AE38093E80008951F920F9236
:100FB0000FB60F9211242F933F934F935F936F932C
:100FC0007F938F939F93AF93BF93EF93FF93809102
:100FD000E1001092E10083FF0FC01092E90091E060
:100FE0009093EB001092EC0092E39093ED0010923E
:100FF0006A0198E09093F00082FF1DC083E00E9498
:10100000CC0780916C01882339F080916C0181506C
:1010100080936C01882369F080916B01882359F0DB
:1010200080916B01815080936B01811104C02898DD
:1010300002C05D98F1CFFF91EF91BF91AF919F9169
:101040008F917F916F915F914F913F912F910F9071
:101050000FBE0F901F90189510926A0181E0809347
:10106000D70080EA8093D80082E189BD09B400FEF0
:10107000FDCF61E070E080E090E00E94680380E9CD
:101080008093D8008CE08093E2001092E000559AA3
:10109000209A5D98289808950895CF93DF931F9222
:1010A000CDB7DEB76983DC01ED91FC910280F3815D
:1010B000E02D41E050E0BE016F5F7F4F09950F903A
:1010C000DF91CF910895CF93DF93EC018C859D85BF
:1010D00097FF05C082E00E9477059D878C878C85ED
:1010E0009D85DF91CF91089583E00C94CC07FC019E
:1010F0008485958597FD06C082E00E941F0590E0DB
:101100000196089582E00E941F0590E00895FC0179
:101110008485958597FD05C02FEF3FEF35872487A0
:10112000089582E00C947705CF93DF93EC018091D2
:101130001101882331F083E00E94A80518161906D2
:1011400034F081E090E09B838A8380E090E0DF913F
:10115000CF910895FC0120812E5F208342E450E06E
:1011600067E871E080E80C944306FC01818190817E
:10117000913A59F4813209F03CC047E050E06AE00E
:1011800071E080E00E94430643C0913291F58032C5
:1011900039F467E070E08AE091E00E94740606C0CE
:1011A000823209F035C082818093110180910A0159
:1011B00090910B01A0910C01B0910D01803B9440E6
:1011C000A105B105C1F48091110180FD14C087E72C
:1011D00097E790930108809300082BE088E190E066
:1011E0000FB6F894A895809360000FBE209360001E
:1011F0000FC080E0089588E10FB6F89480936000F6
:10120000109260000FBEA89510920108109200087D
:1012100081E008951092700110926F0188EE93E0C2
:10122000A0E0B0E08093710190937201A0937301EC
:10123000B093740188E191E090936E0180936D0109
:101240008FEF9FEF90937A01809379010895FF9239
:101250000F931F93CF93DF93EC01F62EE881F98172
:101260000480F581E02D09958C01E881F9810680E3
:10127000F781E02D6F2DCE010995C8019927DF91E7
:10128000CF911F910F91FF900895FC0120812F5F56
:10129000208349E150E069E472E080E80C94430661
:1012A00045E650E062E672E080E80C944306EF9277
:1012B000FF920F931F93CF93DF931F92CDB7DEB7AB
:1012C00089838B017A0141E050E0BE016F5F7F4F5F
:1012D00084E00E94A805A701B80184E40E94A80543
:1012E0000F90DF91CF911F910F91FF90EF90089594
:1012F000FC0191818081813A31F481E0913091F05B
:10130000933089F411C0813271F49B3021F48281D1
:101310008093130105C09A3031F4828180931201C9
:1013200081E00895089580E0089548E050E082E06B
:101330000C945709CF93DF93DC01683818F0E8E785
:10134000E60F25C0E62FF0E067FF11C0E058F10975
:1013500081E090E001C0880FEA95EAF714969C912D
:101360001497982B14969C931497E0E010C0E753C1
:10137000FE4FE491EE2309F440C0E7FF08C0149645
:101380008C911497826014968C931497EF7716962D
:101390008C9116978E1741F117968C9117978E178F
:1013A00019F118968C9118978E17F1F019968C9167
:1013B00019978E17C9F01A968C911A978E17A1F06B
:1013C0001B968C911B978E1779F080E090E0ED01D1
:1013D000C80FD91F2E81211102C0EE8305C00196CE
:1013E00086309105A1F709C0BD016C5F7F4FCD012B
:1013F0000E94950981E090E008C081E090E013969A
:101400009C938E93129780E090E0DF91CF910895A6
:10141000683818F0E8E7E60F25C0E62FF0E067FF30
:1014200012C0E058F10921E030E001C0220FEA9536
:10143000EAF72095DC0114963C9114973223149618
:101440003C93E0E00FC0E753FE4FE491EE2329F117
:10145000E7FF08C0DC0114962C9114972D7F149699
:101460002C93EF7720E030E0EE2351F0DC01A20F67
:10147000B31F16964C9116974E1302C016961C92E7
:101480002F5F3F4F2630310579F7BC016C5F7F4FEE
:101490000E94950981E090E0089580E090E0089531
:1014A000FC0116821782108611861286138614821A
:1014B000BC016C5F7F4F0C9495091092C90110928A
:1014C000C0011092BF0188E291E09093BE01809329
:1014D000BD010895CF92DF92EF92FF920F931F9379
:1014E000CF93DF936C017A01EB01E60EF71E00E06B
:1014F00010E0CE15DF0561F06991D601ED91FC9108
:101500000190F081E02DC6010995080F191FF1CF58
:10151000C801DF91CF911F910F91FF90EF90DF9065
:10152000CF900895EE0FFF1F0590F491E02D0994E0
:10153000CF93DF938230910510F482E090E0E09148
:10154000CC01F091CD0120E030E0A0E0B0E0309798
:1015500039F14081518148175907B8F048175907A8
:1015600071F482819381109729F013969C938E9346
:1015700012972CC09093CD018093CC0127C02115E8
:10158000310531F04217530718F0A901DB0101C002
:10159000EF019A01BD01DF010280F381E02DD7CF79
:1015A00021153105F9F0281B390B2430310580F461
:1015B0008A819B816115710521F0FB0193838283F0
:1015C00004C09093CD018093CC01FE01329644C0BB
:1015D000FE01E20FF31F8193919322503109398369
:1015E00028833AC02091CA013091CB01232B41F4CA
:1015F00020910201309103013093CB012093CA0165
:1016000020910001309101012115310541F42DB7E0
:101610003EB74091040150910501241B350BE09128
:10162000CA01F091CB01E217F307A0F42E1B3F0B88
:101630002817390778F0AC014E5F5F4F2417350744
:1016400048F04E0F5F1F5093CB014093CA01819326
:10165000919302C0E0E0F0E0CF01DF91CF910895D7
:10166000CF93DF93009709F487C0FC013297138270
:101670001282C091CC01D091CD01209781F42081BC
:101680003181280F391F8091CA019091CB018217B7
:10169000930779F5F093CB01E093CA016DC0DE01A9
:1016A00020E030E0AE17BF0750F412964D915C91E8
:1016B00013979D014115510509F1DA01F3CFB38369
:1016C000A28340815181840F951F8A179B0771F473
:1016D0008D919C911197840F951F02969183808321
:1016E00012968D919C9113979383828321153105D6
:1016F00029F4F093CD01E093CC013EC0D9011396BB
:10170000FC93EE9312974D915D91A40FB51FEA17CC
:10171000FB0779F480819181840F951F0296D9018E
:1017200011969C938E938281938113969C938E93B2
:101730001297E0E0F0E08A819B81009719F0FE01AA
:10174000EC01F9CFCE01029628813981820F931FD7
:101750002091CA013091CB012817390769F43097DD
:1017600029F41092CD011092CC0102C01382128292
:10177000D093CB01C093CA01DF91CF910895DC01D2
:1017800001C06D9341505040E0F7089512E0CEEC57
:10179000D2E004C0FE010E94940A2296C03DD10707
:0617A000C9F7F894FFCF29
:1017A6000000CE0180000C040C0A00E100000000DD
:1017B60000000101000000004D0894087708870822
:1017C600630874080000000027096A0A9A09080AD3
:0217D600500AB7
:00000001FF
