:100000000C9442010C9473010C9473010C947301D1
:100010000C9473010C9473010C9473010C94730190
:100020000C9473010C9473010C9473010C94730180
:100030000C9473010C9473010C9473010C94730170
:100040000C9473010C9473010C9473010C94730160
:100050000C9473010C9473010C9473010C94D203EF
:100060000C9473010C9400070C9436070C947301E4
:100070000C9473010C9473010C9473010C94730130
:100080000C9473010C9473010C9473010C94730120
:100090000C9473010C9473010C9473010C94730110
:1000A0000C9473010C9473010C9473010C94730100
:1000B0000C9473010C9473010C9473010C947301F0
:1000C0000C9473010C9473010C9473010C947301E0
:1000D0000C9473010C9473010C9473010C947301D0
:1000E0000C947301E204E504D404D804DE041C0576
:1000F000E904ED04F304F704FB0401050505090513
:100100001C050F05130517050C9417050C94F30433
:100110000C9460070C94FB040C948C050C94B905AA
:100120000C94F7040C9439060C9405050C94A50561
:100130000C9409050C9401050C94F6020C9413051B
:100140000C9417060C94BD070C94E5040C94DE0483
:100150000C94E9040C9409030C94E2040C940F052C
:100160000C94D4040C9497050C946A070C94D8044E
:100170000C94ED040C941C0500000A0B02090C0DF4
:100180000E0807030401000000000000000000004A
:10019000000000000000000000000000000000005F
:1001A000000000001211100000000000000000001C
:1001B000000000000000000000000000000001023C
:1001C0001020200808102040102040800201020169
:1001D0000804020101020408102040808040201021
:1001E000080402018004020180402010080402017A
:1001F00008040201010204081020408001020408E2
:1002000010204080050505050705080808080202BA
:1002100002020A0A080804040404010101010101A0
:1002200001010303030303030303040707070C0C83
:100230000C0C0C0C0C0C020202020606060606064A
:1002400006060B0B0B0B0B0B0B0B00002200250003
:1002500028002B002E0031003400020100000501AF
:1002600008010B0100002100240027002A002D00B6
:100270003000330001010000040107010A01F60209
:100280006A07090311241FBECFEFD1E2DEBFCDBF45
:1002900000E00CBF13E0A0E0B2E0E4EAF2E100E02D
:1002A0000BBF02C007900D92A63BB107D9F724E01F
:1002B000A6EBB3E001C01D92AE3EB207E1F712E03B
:1002C000C2E8D2E000E006C022970109FE010BBFA0
:1002D0000E940E08CE37D10780E00807A9F70E94D8
:1002E000AE070C9440090C940000FF920F931F93EB
:1002F000CF93DF93EC01F22E798368838B01000F9B
:10030000111F060F171F1B830A834C831D822B8727
:100310001C861D861E861F8650E0FA01EC5FFD4F8D
:10032000E491F0E0EE0FFF1FE65BFD4F85919491A5
:10033000998B888BFA01E254FE4F44914A8BC80195
:100340000E9412089F838E83009729F0A80160E025
:1003500070E00E943909F0FE04C081E088871986A8
:100360000BC0F2FE06C081E0888782E089871A868A
:1003700005C0188681E0898782E08A87DF91CF9166
:100380001F910F91FF900895CF93DF93EC018E8121
:100390009F81009711F00E94AA0860E08C81DF9194
:1003A000CF910C941D05CF93DF93EC0161E08C811C
:1003B0000E941D0560E08C81DF91CF910C94560561
:1003C000CF92DF92EF92FF920F931F93CF93DF9321
:1003D000CDB7DEB729970FB6F894DEBF0FBECDBFFD
:1003E0008C01DC0116968D919C911797892B09F44D
:1003F0009BC00E941C04F801C484D584E684F78461
:100400006C197D098E099F0962337105810591057B
:1004100080F3F894828193819A838983A681B7813E
:100420007D01EFEFEE1AFE0A8C918987D8011B96A9
:100430009C911B9750960D90BC91A02DF80182893C
:1004400091FF2EC09C91982B98879C918095892331
:100450008F838F818E8388E08D8358856F81498556
:100460003D812E8189819A81F7015C9347FD252F7B
:100470003A952C93262F39F0441F00C000006C934E
:10048000000000C0F2CF38E041916C93000001976A
:1004900061F7F801B18BA08B49873D832E8338C06B
:1004A0009C91982B98879C91809589238F838F812D
:1004B0008C8388E08B8358856F8149853B812C81B3
:1004C00089819A81F7015C9347FD252F00C000C008
:1004D0002C9300C000C000C000C000C06C9300009E
:1004E000262F3A9541F0441F000000C000C000C014
:1004F00000C000C0E8CF38E0419100C06C9300C05C
:10050000019709F7F801B18BA08B49873B832C83B6
:100510009A83898378940E941C04D8011C966D9359
:100520007D938D939C931F9729960FB6F894DEBF09
:100530000FBECDBFDF91CF911F910F91FF90EF9034
:10054000DF90CF9008950F931F93FC0180819181DC
:100550006817790738F58581882361F0489FA001E5
:100560001124452F289F90011124232F089F8001DB
:100570001124012FDB01AA0FBB1FA60FB71F868115
:1005800097818A0F9B1F3085DC01A30FB11D4C930F
:100590003185DC01A30FB11D2C932285FC01E20FF4
:1005A000F11D00831F910F9108950F9326E040E8FD
:1005B00055E260E070E08DE494E00E949E0686EBD8
:1005C00093E00E94D30186EB93E00E94E00100E0FB
:1005D00020E04FEF6AE973E086EB93E00E948A0324
:1005E00086EB93E00F910C94E0010895EF920F9346
:1005F00083E0E82E00910702209106024091080254
:100600006091090286EB93E00E940D030F91EF9039
:10061000089586EB93E00C94C401EF92FF920F9340
:100620001F93CF93DF93EC01F62E142F622F402FF0
:100630002E2D70E00E947501FB8A1C8BF19E102DFF
:1006400011241D8BDF91CF911F910F91FF90EF909F
:100650000895FC01248940FF04C08FEF820F861BA0
:1006600001C0862F90E0429F800D911D11240895B6
:100670006F927F928F929F92AF92BF92CF92DF92B2
:10068000EF92FF920F931F93CF93DF934C01F42EC1
:10069000D22E702EA62EAA0CA60EB12CC501855FF7
:1006A0009D4F5C0110E0C0E0D0E0612E6E0CD501E2
:1006B000EC91FF27E7FDF0950C2E02C0F595E7952C
:1006C0000A94E2F7E0FF0DC04C2F4C0D662DC401DB
:1006D0000E942903072D2D2D4F2DBC01C4010E941E
:1006E000A3022196C830D10511F78FEFA81AB80AD6
:1006F0001F5F1330C1F6DF91CF911F910F91FF90D3
:10070000EF90DF90CF90BF90AF909F908F907F90B1
:100710006F9008958F929F92AF92BF92CF92DF9287
:10072000EF92FF920F931F93CF93DF935C01EB0146
:10073000D42E922E802E10E085E0F82E812F90E0AE
:10074000FE0101900020E9F73197EC1BFD0BFE9EA6
:10075000B001FF9E700D112486179707B0F4F501C4
:10076000E488E11AFE01E80FF91FC12C082D292D9C
:100770004D2D6081C5010E94380364E670E080E081
:1007800090E00E943F041F5FD9CFDF91CF911F916E
:100790000F91FF90EF90DF90CF90BF90AF909F9020
:1007A0008F9008951F920F920FB60F9211242F93DE
:1007B0003F938F939F93AF93BF9380914504909104
:1007C0004604A0914704B09148043091440423E0CA
:1007D000230F2D3720F40196A11DB11D05C026E879
:1007E000230F0296A11DB11D20934404809345045C
:1007F00090934604A0934704B09348048091490421
:1008000090914A04A0914B04B0914C040196A11D13
:10081000B11D8093490490934A04A0934B04B09374
:100820004C04BF91AF919F918F913F912F910F9069
:100830000FBE0F901F9018953FB7F8948091490410
:1008400090914A04A0914B04B0914C0426B5A89B0A
:1008500005C02F3F19F00196A11DB11D3FBF6627AE
:10086000782F892F9A2F620F711D811D911D42E0F3
:10087000660F771F881F991F4A95D1F70895CF9269
:10088000DF92EF92FF92CF93DF936B017C010E9486
:100890001C04EB01C114D104E104F10489F00E94AD
:1008A000E5070E941C046C1B7D0B683E734090F3AF
:1008B00081E0C81AD108E108F108C851DC4FEACF3D
:1008C000DF91CF91FF90EF90DF90CF9008957894D3
:1008D00084B5826084BD84B5816084BD85B5826045
:1008E00085BD85B5816085BDEEE6F0E080818160E3
:1008F0008083E1E8F0E010828081826080838081E3
:1009000081608083E0E8F0E0808181608083E1EBBA
:10091000F0E0808184608083E0EBF0E080818160A2
:100920008083E1E9F0E08081826080838081816062
:100930008083E0E9F0E0808181608083E1EAF0E09B
:10094000808182608083808181608083E0EAF0E042
:10095000808181608083E1E2F1E080818260808338
:10096000808181608083E0E2F1E08081816080832A
:10097000EAE7F0E080818460808380818260808308
:100980008081816080838081806880831092C10033
:10099000089590E0FC013197E231F10508F04CC078
:1009A000EE58FF4F0C940808809180008F7703C0A9
:1009B000809180008F7D80938000089580918000D9
:1009C000877FF9CF84B58F7702C084B58F7D84BDD2
:1009D00008958091B0008F7703C08091B0008F7D23
:1009E0008093B0000895809190008F7707C0809128
:1009F00090008F7D03C080919000877F809390004E
:100A000008958091A0008F7707C08091A0008F7D0E
:100A100003C08091A000877F8093A00008958091FB
:100A200020018F7707C0809120018F7D03C08091C6
:100A30002001877F809320010895CF93DF9390E07A
:100A4000FC01E254FE4F2491FC01EC5FFD4F8491C8
:100A5000882349F190E0880F991FFC01EC59FD4F64
:100A6000A591B491865B9D4FFC01C591D4919FB730
:100A7000611108C0F8948C91209582238C93888111
:100A800082230AC0623051F4F8948C91322F309551
:100A900083238C938881822B888304C0F8948C9163
:100AA000822B8C939FBFDF91CF9108950F931F935B
:100AB000CF93DF931F92CDB7DEB7282F30E0F90137
:100AC000E858FE4F8491F901E254FE4F1491F90168
:100AD000EC5FFD4F04910023C9F0882321F0698366
:100AE0000E94C9046981E02FF0E0EE0FFF1FE65B72
:100AF000FD4FA591B4919FB7F8948C91611103C0FB
:100B00001095812301C0812B8C939FBF0F90DF91A3
:100B1000CF911F910F910895FC01818D228D90E05E
:100B2000805C9F4F821B91098F7399270895FC0168
:100B3000918D828D981731F0828DE80FF11D858D92
:100B400090E008958FEF9FEF0895FC01918D828DC5
:100B5000981761F0828DDF01A80FB11D5D968C9111
:100B6000928D9F5F9F73928F90E008958FEF9FEF1C
:100B7000089580E697E0892B41F080E090E0892B92
:100B800021F00E946007811125C080E090E0892B50
:100B900041F080E090E0892B21F00E94000081115B
:100BA0001CC080E090E0892B41F080E090E0892B30
:100BB00021F00E940000811113C080E090E0892B99
:100BC000A1F080E090E0892B81F00E94000081116B
:100BD0000AC008950E940000D8CF0E940000E1CF13
:100BE0000E940000EACF0C9400000895FC01848D5F
:100BF000DF01A80FB11DA35ABF4F2C91848D90E047
:100C000001968F739927848FA689B7892C93A08921
:100C1000B1898C9180648C93938D848D981306C0D8
:100C20000288F389E02D80818F7D80830895CF93A2
:100C3000DF93EC01888D8823C9F0EA89FB898081E4
:100C400085FD05C0A889B9898C9186FD0FC00FB6B6
:100C500007FCF5CF808185FFF2CFA889B9898C91F7
:100C600085FFEDCFCE010E94F605E7CFDF91CF9152
:100C70000895CF92DF92FF920F931F93CF93DF934C
:100C80001F92CDB7DEB76C01DC015B969C915B9740
:100C90005C968C915C97981307C05096ED91FC91EF
:100CA0005197808185FD32C0F601038D10E00F5F02
:100CB0001F4F0F731127F02EF601848DF81211C00B
:100CC0000FB607FCF9CFD6015096ED91FC915197E4
:100CD000808185FFF1CFC60169830E94F605698195
:100CE000EBCF838DE80FF11DE35AFF4F6083D601F0
:100CF0005B960C935B975296ED91FC915397808194
:100D00008062808381E058968C930DC0D601569600
:100D1000ED91FC91579760835096ED91FC9151971E
:100D200080818064808381E090E00F90DF91CF919B
:100D30001F910F91FF90DF90CF900895BF92CF92B7
:100D4000DF92EF92FF92CF93DF93EC016A017B0178
:100D5000B22EE889F98982E08083411581EE580737
:100D600061057105A1F060E079E08DE390E0A701F5
:100D700096010E94E6072150310941095109569513
:100D8000479537952795211580E1380798F0E88930
:100D9000F989108260E874E88EE190E0A70196017D
:100DA0000E94E6072150310941095109569547959E
:100DB00037952795EC85FD853083EE85FF8520836B
:100DC000188EEC89FD89B082EA89FB898081806177
:100DD0008083EA89FB89808188608083EA89FB8936
:100DE000808180688083EA89FB8980818F7D808310
:100DF000DF91CF91FF90EF90DF90CF90BF9008955B
:100E00001F920F920FB60F9211240BB60F922F93D1
:100E10008F939F93EF93FF93E0915D04F0915E04B5
:100E20008081E0916304F091640482FD12C090819E
:100E3000809166048F5F8F7320916704821751F051
:100E4000E0916604F0E0E35BFB4F958F80936604CE
:100E500001C08081FF91EF919F918F912F910F9011
:100E60000BBE0F900FBE0F901F9018951F920F9200
:100E70000FB60F9211240BB60F922F933F934F93FF
:100E80005F936F937F938F939F93AF93BF93EF93F2
:100E9000FF938DE494E00E94F605FF91EF91BF91DE
:100EA000AF919F918F917F916F915F914F913F9102
:100EB0002F910F900BBE0F900FBE0F901F901895A3
:100EC0008DE494E00E948C0521E0892B09F420E058
:100ED000822F08951092500410924F0488EE93E0F0
:100EE000A0E0B0E08093510490935204A093530487
:100EF000B09354048AEA93E090934E0480934D0497
:100F000085EC90E090935A048093590484EC90E02F
:100F100090935C0480935B0480EC90E090935E047B
:100F200080935D0481EC90E09093600480935F0473
:100F300082EC90E0909362048093610486EC90E0F0
:100F40009093640480936304109266041092670483
:100F50001092680410926904089508950E9467042D
:100F60000E94AD070E94D502C9EBD5E00E94F502B0
:100F70002097E1F30E94B905F9CFCF92DF92EF926B
:100F8000FF920F931F93CF93DF936C017A01EB01D4
:100F9000E60EF71E00E010E0CE15DF0561F0699166
:100FA000D601ED91FC910190F081E02DC6011995DB
:100FB000080F191FF1CFC801DF91CF911F910F9139
:100FC000FF90EF90DF90CF9008950895A1E21A2E40
:100FD000AA1BBB1BFD010DC0AA1FBB1FEE1FFF1FDD
:100FE000A217B307E407F50720F0A21BB30BE40B2D
:100FF000F50B661F771F881F991F1A9469F7609574
:101000007095809590959B01AC01BD01CF0108952D
:10101000EE0FFF1F0590F491E02D19940790F691C3
:10102000E02D1994CF93DF938230910510F482E084
:1010300090E0E091EC04F091ED0420E030E0A0E0DD
:10104000B0E0309739F14081518148175907B8F025
:101050004817590771F482819381109729F01396EC
:101060009C938E9312972CC09093ED048093EC0484
:1010700027C02115310531F04217530718F0A90197
:10108000DB0101C0EF019A01BD01DF010280F381A4
:10109000E02DD7CF21153105F9F0281B390B24306D
:1010A000310580F48A819B816115710521F0FB0176
:1010B0009383828304C09093ED048093EC04FE013B
:1010C000329644C0FE01E20FF31F819391932250A8
:1010D0003109398328833AC02091EA043091EB0426
:1010E000232B41F420910202309103023093EB0450
:1010F0002093EA042091000230910102211531056C
:1011000041F42DB73EB74091040250910502241BD3
:10111000350BE091EA04F091EB04E217F307A0F439
:101120002E1B3F0B2817390778F0AC014E5F5F4F3D
:101130002417350748F04E0F5F1F5093EB04409380
:10114000EA048193919302C0E0E0F0E0CF01DF91E7
:10115000CF910895CF93DF93009709F487C0FC01E6
:10116000329713821282C091EC04D091ED04209743
:1011700081F420813181280F391F8091EA049091F8
:10118000EB048217930779F5F093EB04E093EA04FC
:101190006DC0DE0120E030E0AE17BF0750F41296BC
:1011A0004D915C9113979D014115510509F1DA01AB
:1011B000F3CFB383A28340815181840F951F8A1797
:1011C0009B0771F48D919C911197840F951F029646
:1011D0009183808312968D919C9113979383828340
:1011E0002115310529F4F093ED04E093EC043EC0A1
:1011F000D9011396FC93EE9312974D915D91A40F34
:10120000B51FEA17FB0779F480819181840F951F40
:101210000296D90111969C938E93828193811396A5
:101220009C938E931297E0E0F0E08A819B81009777
:1012300019F0FE01EC01F9CFCE0102962881398127
:10124000820F931F2091EA043091EB04281739078D
:1012500069F4309729F41092ED041092EC0402C066
:1012600013821282D093EB04C093EA04DF91CF91F2
:101270000895DC0101C06D9341505040E0F708959E
:1012800012E0C2E8D2E000E006C022970109FE01A8
:101290000BBF0E940E08C438D10780E00807A9F7E9
:0412A000F894FFCFF0
:1012A4000000EE04800078050C0A03000000000032
:1012B400000000000000000000000000000000002A
:1012C400000000000000000000000000000000001A
:1012D400000000000000000000000000000000000A
:1012E40000000000000000000000000000000000FA
:1012F40000000000000000000000000000000000EA
:101304000000000000000000000000000000005E7B
:1013140000060006FFFFFF48D624461862FFFFFFC1
:1013240000060038448282443814083E103810A065
:1013340060001010106060006018067C427C447EDF
:101344004064524C4A4A3438247E4E4A323C4A3233
:10135400621A06764A764C523C6C6C00AC6C0010F7
:101364002844282828442810FFFFFFFFFFFF7C1291
:101374007C7C4A343C42427E423C7E4A427E0A0A9B
:101384003C52347E087E427E4230403E7E18667E69
:1013940040407E1C7E7E027E3C423C7E120C7E627D
:1013A400FE7E324E444A32027E027E407E3E403E03
:1013B4003E7C3E6618660E700E625A46007E4206F9
:1013C4001860427E00040204404040000204745449
:1013D400787E483038444430487E3854487C0A0289
:1013E40098A47C7E0870487A4088FA007E18643E8F
:1013F40040407C387C7C0478384438FC2418182419
:10140400FC780404485424043E447C407C3C403C26
:101414003C783C6C106C9CA07C64544CFFFFFFFF38
:10142400FFFFFFFFFFFFFFFFFFFFFFFFFFFFFFFFC8
:10143400FFFC407CFFFFFFFFFFFF48656C6C6F20E3
:10144400576F726C6400000000003906BD078C05FC
:06145400A505970517062F
:00000001FF
