:100000000C945F000C9487000C9487000C9487007C
:100010000C9487000C9487000C9487000C94870044
:100020000C9487000C9487000C9487000C94870034
:100030000C9487000C94CB060C9487000C948700DA
:100040000C94F3090C9487000C94A00C0C94D20C23
:100050000C9487000C9487000C9487000C94870004
:100060000C9487000C948700000000080002010037
:100070000003040700000000000000000102040863
:100080001020408001020408102001020408102002
:10009000040404040404040402020202020203032E
:1000A0000303030300000000250028002B000000CC
:1000B0000000240027002A00CA02020DD0021124E9
:1000C0001FBECFEFD8E0DEBFCDBF12E0A0E0B1E0B1
:1000D000EAE9F4E202C005900D92AA38B107D9F717
:1000E00023E0AAE8B2E001C01D92AC33B207E1F709
:1000F00010E0CCEBD0E004C02297FE010E94890FF3
:10010000C83BD107C9F70E94460D0C9440120C94CD
:100110000000FF920F931F93CF93DF93EC01F22E19
:1001200079836883CB01880F991F860F971F9B8364
:100130008A834C831D821F821E82FB861C861D863D
:100140001E861F8650E0FA01E057FF4FE491F0E071
:10015000EE0FFF1FEC55FF4F85919491998B888B83
:10016000FA01E458FF4F44914A8B6CE471E08BE94B
:1001700092E00E94B40D0A811B81C8010E949C0F6D
:100180009F838E83009729F0A80160E070E00E94B1
:10019000F311F0FE04C081E0888719860BC0F2FEDF
:1001A00006C081E0888782E089871A8605C01886A4
:1001B00081E0898782E08A87DF91CF911F910F913B
:1001C000FF900895CF93DF93EC016BE671E08BE92C
:1001D00092E00E94B40D8E819F81009721F0DF9103
:1001E000CF910C943410DF91CF910895CF93DF938A
:1001F000EC0161E08C810E94EC0A60E08C81DF916F
:10020000CF910C94250BCF92DF92EF92FF920F9338
:100210001F93CF93DF93CDB7DEB729970FB6F8942E
:10022000DEBF0FBECDBF8C01DC0116968D919C9177
:100230001797892B09F49BC00E943D0AF801C484DA
:10024000D584E684F7846C197D098E099F09623391
:1002500071058105910580F3F894828193819A83D9
:100260008983A681B7817D01EFEFEE1AFE0A8C919A
:100270008987D8011B969C911B9750960D90BC9135
:10028000A02DF801828991FF2EC09C91982B988710
:100290009C91809589238F838F818E8388E08D83C5
:1002A00058856F8149853D812E8189819A81F70129
:1002B0005C9347FD252F3A952C93262F39F0441F48
:1002C00000C000006C93000000C0F2CF38E0419104
:1002D0006C930000019761F7F801B18BA08B4987FF
:1002E0003D832E8338C09C91982B98879C91809554
:1002F00089238F838F818C8388E08B8358856F81DE
:1003000049853B812C8189819A81F7015C9347FD66
:10031000252F00C000C02C9300C000C000C000C04A
:1003200000C06C930000262F3A9541F0441F000056
:1003300000C000C000C000C000C0E8CF38E041915C
:1003400000C06C9300C0019709F7F801B18BA08B36
:1003500049873B832C839A83898378940E943D0A42
:10036000D8011C966D937D938D939C931F9729962E
:100370000FB6F894DEBF0FBECDBFDF91CF911F91B6
:100380000F91FF90EF90DF90CF9008950F931F9300
:10039000FC01808191816817790738F58581882370
:1003A00061F0489FA0011124452F289F900111243E
:1003B000232F089F80011124012FDB01AA0FBB1FEF
:1003C000A60FB71F868197818A0F9B1F3085DC019E
:1003D000A30FB11D4C933185DC01A30FB11D2C93EC
:1003E0002285FC01E20FF11D00831F910F910895FA
:1003F000CF92DF92EF92FF920F931F93CF93DF93F1
:10040000FC01808191816817790788F5CA01AA27C4
:10041000BB27082FC32ED42EE52EFF241C2DD22F50
:10042000C581CC2361F08C9FC0011124092FCC9E83
:10043000600111241D2D2C9F90011124D32F9B01AD
:10044000220F331F260F371F86819781820F931F3C
:100450002085DC01A20FB11D0C932185DC01A20FC8
:10046000B11D1C932285FC01E20FF11DD083DF91A9
:10047000CF911F910F91FF90EF90DF90CF90089553
:10048000962F50E060E070E0592B682BCB01BA0149
:100490000895FC01808191810895CF92EF920F938E
:1004A0001F93CF93DF938EE890E00E94550DEC01EF
:1004B00093E0E92E00910B0120910A0140910C017B
:1004C00060910D01CE010E948B0361E08DE00E94DE
:1004D000EC0ACE010E94F600CE010E94030126E044
:1004E00040E05BE460E070E08BE992E00E943E0C4B
:1004F00069E871E08BE992E00E94B40D68EC70E06D
:100500008AE892E00E94B30E10E0C12C85E0E82E4C
:1005100000E020E04BE9612FCE010E94FB03CE01F9
:100520000E94030168EC70E080E090E00E94600AA5
:10053000CE010E94BB03CE010E9403011F5F1A304F
:1005400021F7209761F0CE010E94AD03CE01DF912B
:10055000CF911F910F91EF90CF900C94570DDF9199
:10056000CF911F910F91EF90CF90089561E08DE0B2
:100570000E94250B64E670E080E090E00E94600A33
:1005800060E08DE00E94250B64E670E080E090E082
:100590000C94600A63E172E08AE892E00C94F00E39
:1005A0008AE892E00C94820ECF92EF920F93CF9351
:1005B000DF938BE992E00E94740B883501F586E1A8
:1005C00091E00E94550DEC0163E0C62EE0900B0116
:1005D00000910A0120910C0140910D0160910E01E2
:1005E0000E94600768EECE010E947B08892BD1F73C
:1005F000209709F489C0CE010E94C10782C08434CB
:10060000F9F480EA90E00E94550DEC0153E0C52E0C
:10061000E0900B0100910A0120910C0140910D0125
:1006200060910E010E946906CE010E94FB06892B93
:10063000D9F7209709F468C0CE010E949E0561C0D9
:100640008133D1F482E990E00E94550DEC0143E042
:10065000C42EE0900B0100910A0120910C01409101
:100660000D0160910E010E944E0464E1CE010E94D2
:100670008C04892BD1F740C0823319F582E990E0D0
:100680000E94550DEC0133E0C32EE0900B01009168
:100690000A0120910C0140910D0160910E010E9410
:1006A0004E0440E06FEF80E00E944002262F44E1BC
:1006B00050E060E070E0CE010E94E404892B89F7ED
:1006C0001BC0833309F582E990E00E94550DEC01CF
:1006D00023E0C22EE0900B0100910A0120910C0151
:1006E00040910D0160910E010E944E0464E1CE0123
:1006F0000E942405892BD1F7209731F0CE010E946A
:10070000AD03CE010E94570DDF91CF910F91EF9075
:10071000CF900C94B602EF92FF920F931F93CF935A
:10072000DF93EC01F62E142F622F402F2E2D70E058
:100730000E94890064E971E08BE992E00E94B40DA7
:10074000FB8A1C8BF19E102D11241D8BDF91CF9104
:100750001F910F91FF90EF900895CF93DF93EC01DD
:100760006DEA71E08BE992E00E94B40DCE01DF9159
:10077000CF910C94E200EF92FF920F93CF93DF930F
:100780007C01C0E0D0E0F701858990E0C817D90767
:100790004CF400E020E040E0BE01C7010E94C60129
:1007A0002196F1CFDF91CF910F91FF90EF900895B7
:1007B000FC015489E52FF0E0262F30E02E173F078B
:1007C00014F06FEF650FFC017389272F30E0842F41
:1007D00090E08217930714F04FEF470F459FC00139
:1007E000112440FF05C05150561B850F911D0895DF
:1007F000860F911D08956F927F928F929F92AF9274
:10080000BF92CF92DF92EF92FF920F931F93CF93FD
:10081000DF934C01F42ED22E702EA62EAA0CAA0C19
:10082000A60EB12CC501805F9E4F5C0110E0C0E0B8
:10083000D0E0612E6E0CD501EC91FF27E7FDF0951D
:100840000C2E02C0F595E7950A94E2F7E0FF0DC083
:100850004C2F4C0D662DC4010E94D803072D2D2D61
:100860004F2DBC01C4010E94C6012196C830D1059C
:1008700011F78FEFA81AB80A1F5F1330C1F6DF9186
:10088000CF911F910F91FF90EF90DF90CF90BF908D
:10089000AF909F908F907F906F900895CF92EF923E
:1008A000FF920F931F93CF93DF93EC01F42E122F3F
:1008B000202F0E2DEC2C412F6F2D0E948B03FE015B
:1008C000E257FF4FF082C157DF4F1883DF91CF917E
:1008D0001F910F91FF90EF90CF900895609565352F
:1008E00038F4862F880F860F482F60E0809512C05D
:1008F0006A3A48F48BEA860F682F660F680F462F16
:10090000409580E007C06A5A862F880F860F682FAF
:10091000609540E00C9440028F929F92AF92BF92FC
:10092000CF92DF92EF92FF920F931F93CF93DF93BB
:10093000EC01E12CF12C862E912CA12CB12CC12C98
:10094000D12C00E010E0CE010E94490208171907DF
:10095000D8F48BE992E00E94740B8F3431F1CE0110
:100960000E944902BC01C6010E94130F6E0DCE0108
:100970000E946E049B01AC01B801CE010E94F801F7
:100980000F5F1F4FD394DFCFCE010E940301C5013B
:10099000B4010E94600A8FEFE81AF80AE11485E0BA
:1009A000F80669F681E090E002C080E090E0DF9117
:1009B000CF911F910F91FF90EF90DF90CF90BF905C
:1009C000AF909F908F9008958F929F92AF92BF9219
:1009D000CF92DF92EF92FF920F931F93CF93DF930B
:1009E0008C016A017B01C0E0D0E0822E912CA12C09
:1009F000B12CC8010E944902C817D907C0F48BE97D
:100A000092E00E94740B8F3419F480E090E00FC0E4
:100A1000A7019601BE01C8010E94F801C8010E9409
:100A20000301C501B4010E94600A2196E2CFDF9163
:100A3000CF911F910F91FF90EF90DF90CF90BF90DB
:100A4000AF909F908F9008956F927F928F929F9218
:100A5000AF92BF92CF92DF92EF92FF920F931F93CC
:100A6000CF93DF93EC01C12CD12C66246A94712CB6
:100A7000862E912CA12CB12C00E010E0E12CF12C61
:100A8000CE010E944902E816F906F8F48BE992E0DB
:100A90000E94740B8F3419F480E090E040C0C701CD
:100AA0008C0D9D1DB3010E94270F682FCE010E945F
:100AB0006E049B01AC01B701600F711FCE010E9453
:100AC000F80183E0E80EF11CDBCFCE010E940301A8
:100AD000C501B4010E94600AE12CF12CCE010E94F4
:100AE0004902E816F90668F4B701600F711F20E0AB
:100AF00030E0A901CE010E94F80183E0E80EF11C6C
:100B0000EDCF0F5F1F4F0330110509F0B7CF8FEF07
:100B1000C81AD80AC11481E0D80609F0ADCFDF9118
:100B2000CF911F910F91FF90EF90DF90CF90BF90EA
:100B3000AF909F908F907F906F900895CF93DF93A9
:100B4000EC0161EE71E08BE992E00E94B40DEFE6FA
:100B5000F0E080818E7F8083CE01DF91CF910C9475
:100B6000AD039F92AF92BF92CF92DF92EF92FF922E
:100B70000F931F93CF93DF93EC01B12C8C0100579F
:100B80001F4FF8018081B81640F54FEF6FEF8FEFE0
:100B90000E9440026B017C0140E06B2DCE010E945F
:100BA000D803A7019601BC01CE010E94F8014FEFC6
:100BB0006FEF8FEF0E9440026B017C01F8014081D2
:100BC00041506B2DCE010E94D803A7019601BC01B4
:100BD000CE010E94F801B394D4CF912C5E01FFE8BE
:100BE000AF0EB11CF5018081981608F04CC04FEF94
:100BF0006FEF8FEF0E9440026B017C01492D60E096
:100C0000CE010E94D803A7019601BC01CE010E942B
:100C1000F8014FEF6FEF8FEF0E9440026B017C01F4
:100C2000F80160816150492DCE010E94D803A701CF
:100C30009601BC01CE010E94F8014FEF6FEF8FEFDC
:100C40000E9440026B017C01492D65E0CE010E94AB
:100C5000D803A7019601BC01CE010E94F8014FEF15
:100C60006FEF8FEF0E9440026B017C01492D66E01F
:100C7000CE010E94D803A7019601BC01CE010E94BB
:100C8000F8019394AFCFCE01DF91CF911F910F91D7
:100C9000FF90EF90DF90CF90BF90AF909F900C941B
:100CA0000301F89410928000E1E8F0E01082809156
:100CB00090029091910290938500809384008081AE
:100CC00084608083EFE6F0E08081816080837894A7
:100CD0000895CF92DF92EF92FF920F931F93CF93DD
:100CE000DF93EC01F42ED22E202F0E2DEC2C4D2D67
:100CF0006F2D0E948B03DE01AC56BF4F8AE0E2E409
:100D0000F1E001900D928A95E1F70DB71EB70C53F3
:100D1000134062EF71E08BE992E00E94B40D62E152
:100D200072E08BE992E00E94B40D64E072E08BE91E
:100D300092E00E94970D4AE050E0B8018BE992E002
:100D40000E942C0E8E010D561F4F84E0D8018C930B
:100D5000FE01E057FF4FD0823197F082CE010E9412
:100D6000B105CE010E945106FE01E256FF4FD801A7
:100D70008C91992787FD90958C569F4F8C0F9D1FC6
:100D800091838083DF91CF911F910F91FF90EF901E
:100D9000DF90CF9008951F920F920FB60F921124FB
:100DA0002F933F934F935F936F937F938F939F9373
:100DB000AF93BF93EF93FF93809190029091910234
:100DC000909385008093840064E172E08BE992E067
:100DD0000E94B40DFF91EF91BF91AF919F918F91C0
:100DE0007F916F915F914F913F912F910F900FBE27
:100DF0000F901F901895AF92BF92CF92DF92EF9213
:100E0000FF920F931F93CF93DF93EC018BE992E056
:100E10000E94740B823531F4FE01ED56FF4F808144
:100E20008F5F07C08C3439F4FE01ED56FF4F80818F
:100E30008150808302C08F3439F083E0A82EB12C1A
:100E40008E0102561F4F09C06FE172E08BE992E0FC
:100E50000E94B40D80E090E028C040E060E08FEF99
:100E60000E9440026B017C01D801ED91FC91408110
:100E70006AE0CE010E94D803A7019601BC01CE0111
:100E80000E94F801F801808191810196918380830D
:100E9000F1E0AF1AB10809F7CE010E94030168EE34
:100EA00073E080E090E00E94600ADF91CF911F9193
:100EB0000F91FF90EF90DF90CF90BF90AF9008958B
:100EC000CF92EF92FF920F931F93CF93DF93EC019A
:100ED000642F422F202F0E2DEC2C0E948B037E01BD
:100EE0008EE8E80EF11C8E010A5F1E4FF801F182B8
:100EF000E0823296118210826AE272E08BE992E01F
:100F00000E94B40D62E172E08BE992E00E94B40DA0
:100F1000FE01EB5EFE4F10823497108237971082ED
:100F200031961082329685E08083319680833196A7
:100F3000108280E090E02FEFFE01E80FF91FE257EA
:100F4000FF4F2083019688379105B1F7F801F182B0
:100F5000E082CDB7DEB7CC53D34064E072E08BE9DA
:100F600092E00E94970D4AE050E0BE018BE992E0CA
:100F7000DF91CF911F910F91FF90EF90CF900C9444
:100F80002C0ECF93DF93EC016DE372E08BE992E0DE
:100F90000E94B40DFE01EA5FFE4F11821082CE0165
:100FA000DF91CF910C94AD036FE472E08BE992E096
:100FB0000C94B40D0F931F93CF93DF93EC012BE0B0
:100FC00030E040E050E060E070E0CB010E94660E4F
:100FD0008E01035F1E4FF801608329E030E040E09E
:100FE00050E060E070E0CB010E94660E462FFE01EB
:100FF000E25FFE4F6083F8016081CE010E94D8035A
:1010000000E02BE940E0BC01CE010E94C601DF9167
:10101000CF911F910F9108956F927F928F929F921F
:10102000AF92BF92CF92EF920F93CF93DF93EC01E9
:10103000FC01EF5EFE4F20815C018EEEA81A8EEF60
:10104000B80A3AE0822F632F0E94070FF5019083C0
:101050004E01FDEE8F1AFEEF9F0A822F64E60E947A
:10106000070F892F632F0E94070FF4018083822FBF
:1010700090E068EE73E00E94270F64E670E00E9443
:10108000270F3E01FCEE6F1AFEEF7F0AF30160832B
:101090006115710541F0C12CE12C00E020E04BE925
:1010A000CE010E94FB03F4016081611104C0F301D1
:1010B0008081882349F0C12C93E0E92E00E02BE9E0
:1010C00040E0CE010E94FB03C12C86E0E82E0BE934
:1010D00020E040E0F5016081CE010E94FB03DF913A
:1010E000CF910F91EF90CF90BF90AF909F908F9046
:1010F0007F906F9008958F929F92BF92CF92DF92D0
:10110000EF92FF920F931F93CF93DF93EC01B62ED4
:10111000FC01EB5EFE4F10828BE992E00E94740BA3
:10112000823531F4FE01E15FFE4F80818F5F07C0A1
:101130008C3439F4FE01E15FFE4F80818150808361
:1011400009C08F3439F46EE572E08BE992E00E94B9
:10115000B40DF9C0CE010E94BB036E0123EFC21A89
:101160002EEFD20A8E01065F1E4FF6019081F80124
:101170008081981315C0349690813397808198139D
:101180000FC0CE010E94DA07FE01EA5FFE4F8081A8
:1011900091810196918380833B9680818F5F8083CC
:1011A000FE01E15FFE4F808187FF02C083E0808304
:1011B000808184300CF0108280819E01285F3E4F38
:1011C00079018130B9F01CF4882331F040C08230BD
:1011D000E1F0833049F13BC0F80180818B3010F0A1
:1011E0008FEF8083FE01E55FFE4F4081F801608153
:1011F0006F5F18C0FE01E55FFE4F8081893010F0FF
:101200008FEF808340814F5F19C0F8018081811189
:1012100002C08CE08083FE01E55FFE4F4081F80153
:101220006081615060830DC0FE01E55FFE4F8081EB
:10123000811102C08AE08083408141504083F801DF
:101240006081CE010E94D803F70191838083F7016A
:101250002081318188E790E0FE01E80FF91FE25715
:10126000FF4F408150E02417350709F06FC06AE650
:1012700072E08BE992E00E94B40D8BE992E00E944B
:10128000740B883509F459C0F701608171810BE94D
:101290002BE94BE9CE010E94C6016E01812C912CF5
:1012A000F601E257FF4F8081D601A357BF4F8C93C1
:1012B000608170E000E020E04BE9CE010E94C601B1
:1012C000FFEF8F1A9F0A2FEFC21AD20A38E7831650
:1012D000910431F7CE010E94030164E670E080E0E2
:1012E00090E00E94600AF7016081718120E040E097
:1012F000CE010E94C601CE010E94030164E670E0A7
:1013000080E090E00E94600ACE010E94BB03CE0103
:101310000E940C08CE010E94030164E670E080E0A8
:1013200090E00E94600ACE010E94BB0364E670E078
:1013300080E090E00E94600AA0CFCE010E940301ED
:10134000CE010E94D40780E090E041C0019708F0F0
:1013500083CFFE01EA5FFE4F0190F081E02D2083F4
:101360007E01812C912CF701E257FF4F8081D7013C
:10137000A357BF4F8C93608170E000E020E04BE901
:10138000CE010E94C6012FEF821A920A3FEFE31AA4
:10139000F30A48E78416910431F7FE01E25FFE4F3D
:1013A0004081F6016081CE010E94D8032BE940E024
:1013B000BC01CE010E94C601CE010E9403016B2D2B
:1013C00070E080E090E00E94600A81E090E0DF91B0
:1013D000CF911F910F91FF90EF90DF90CF90BF9032
:1013E0009F908F9008951F920F920FB60F92112425
:1013F0002F933F938F939F93AF93BF9380919302CB
:1014000090919402A0919502B0919602309192022F
:1014100023E0230F2D3720F40196A11DB11D05C037
:1014200026E8230F0296A11DB11D209392028093FE
:10143000930290939402A0939502B09396028091A8
:10144000970290919802A0919902B0919A02019608
:10145000A11DB11D8093970290939802A0939902C9
:10146000B0939A02BF91AF919F918F913F912F912D
:101470000F900FBE0F901F9018953FB7F894809172
:10148000970290919802A0919902B0919A0226B584
:10149000A89B05C02F3F19F00196A11DB11D3FBFAC
:1014A0006627782F892F9A2F620F711D811D911D3C
:1014B00042E0660F771F881F991F4A95D1F708955C
:1014C000CF92DF92EF92FF92CF93DF936B017C017B
:1014D0000E943D0AEB01C114D104E104F10489F03A
:1014E0000E94060F0E943D0A6C1B7D0B683E7340F4
:1014F00090F381E0C81AD108E108F108C851DC4F27
:10150000EACFDF91CF91FF90EF90DF90CF900895D9
:10151000789484B5826084BD84B5816084BD85B5CE
:10152000826085BD85B5816085BDEEE6F0E0808195
:1015300081608083E1E8F0E01082808182608083B6
:10154000808181608083E0E8F0E080818160808339
:10155000E1EBF0E0808184608083E0EBF0E080816B
:1015600081608083EAE7F0E080818460808380810D
:1015700082608083808181608083808180688083B5
:101580001092C1000895833081F028F4813099F0E1
:101590008230A1F008958730A9F08830B9F0843006
:1015A000D1F4809180008F7D03C0809180008F777F
:1015B00080938000089584B58F7702C084B58F7DB5
:1015C00084BD08958091B0008F7703C08091B000F2
:1015D0008F7D8093B0000895CF93DF9390E0FC015E
:1015E000E458FF4F2491FC01E057FF4F849188237A
:1015F00049F190E0880F991FFC01E255FF4FA5913A
:10160000B4918C559F4FFC01C591D4919FB7611146
:1016100008C0F8948C91209582238C938881822332
:101620000AC0623051F4F8948C91322F30958323A4
:101630008C938881822B888304C0F8948C91822BB0
:101640008C939FBFDF91CF9108950F931F93CF93FA
:10165000DF931F92CDB7DEB7282F30E0F901E859AC
:10166000FF4F8491F901E458FF4F1491F901E057BD
:10167000FF4F04910023C9F0882321F069830E9461
:10168000C30A6981E02FF0E0EE0FFF1FEC55FF4F1A
:10169000A591B4919FB7F8948C91611103C01095F6
:1016A000812301C0812B8C939FBF0F90DF91CF913D
:1016B0001F910F910895FC01818D228D90E0805C37
:1016C0009F4F821B91098F7399270895FC01918D7B
:1016D000828D981731F0828DE80FF11D858D90E095
:1016E00008958FEF9FEF0895FC01918D828D9817DB
:1016F00061F0828DDF01A80FB11D5D968C91928DF6
:101700009F5F9F73928F90E008958FEF9FEF0895F2
:1017100088EF9CE0892B49F080E090E0892B29F04C
:101720000E94F80C81110C9400000895FC01848D36
:10173000DF01A80FB11DA35ABF4F2C91848D90E0FB
:1017400001968F739927848FA689B7892C93A089D6
:10175000B1898C9180648C93938D848D981306C08D
:101760000288F389E02D80818F7D80830895CF9357
:10177000DF93EC01888D8823C9F0EA89FB89808199
:1017800085FD05C0A889B9898C9186FD0FC00FB66B
:1017900007FCF5CF808185FFF2CFA889B9898C91AC
:1017A00085FFEDCFCE010E94960BE7CFDF91CF9161
:1017B0000895CF92DF92FF920F931F93CF93DF9301
:1017C0001F92CDB7DEB76C01DC015B969C915B97F5
:1017D0005C968C915C97981307C05096ED91FC91A4
:1017E0005197808185FD32C0F601038D10E00F5FB7
:1017F0001F4F0F731127F02EF601848DF81211C0C0
:101800000FB607FCF9CFD6015096ED91FC91519798
:10181000808185FFF1CFC60169830E94960B6981A3
:10182000EBCF838DE80FF11DE35AFF4F6083D601A4
:101830005B960C935B975296ED91FC915397808148
:101840008062808381E058968C930DC0D6015696B5
:10185000ED91FC91579760835096ED91FC915197D3
:1018600080818064808381E090E00F90DF91CF9150
:101870001F910F91FF90DF90CF900895BF92CF926C
:10188000DF92EF92FF92CF93DF93EC016A017B012D
:10189000B22EE889F98982E08083411581EE5807EC
:1018A00061057105A1F060E079E08DE390E0A701AA
:1018B00096010E943B0F215031094109510956956B
:1018C000479537952795211580E1380798F0E889E5
:1018D000F989108260E874E88EE190E0A701960132
:1018E0000E943B0F215031094109510956954795F6
:1018F00037952795EC85FD853083EE85FF85208320
:10190000188EEC89FD89B082EA89FB89808180612B
:101910008083EA89FB89808188608083EA89FB89EA
:10192000808180688083EA89FB8980818F7D8083C4
:10193000DF91CF91FF90EF90DF90CF90BF9008950F
:101940001F920F920FB60F9211242F938F939F9394
:10195000EF93FF93E091AB02F091AC028081E091B4
:10196000B102F091B20282FD12C090818091B40266
:101970008F5F8F732091B502821751F0E091B4020E
:10198000F0E0E556FD4F958F8093B40201C0808151
:10199000FF91EF919F918F912F910F900FBE0F901C
:1019A0001F9018951F920F920FB60F9211242F932C
:1019B0003F934F935F936F937F938F939F93AF93D7
:1019C000BF93EF93FF938BE992E00E94960BFF91F8
:1019D000EF91BF91AF919F918F917F916F915F91A7
:1019E0004F913F912F910F900FBE0F901F90189520
:1019F0008BE992E00E945B0B21E0892B09F420E047
:101A0000822F089510929E0210929D0288EE93E01C
:101A1000A0E0B0E080939F029093A002A093A10267
:101A2000B093A2028EE792E090939C0280939B0277
:101A300085EC90E09093A8028093A70284EC90E05C
:101A40009093AA028093A90280EC90E09093AC025C
:101A50008093AB0281EC90E09093AE028093AD0254
:101A600082EC90E09093B0028093AF0286EC90E01D
:101A70009093B2028093B1021092B4021092B50218
:101A80001092B6021092B702089508950E94880A33
:101A90000E94450D0E944D02C8E8DBE00E94D4027E
:101AA0002097E1F30E94880BF9CF0C949C0F0C94C3
:101AB0003410CF92DF92EF92FF920F931F93CF9348
:101AC000DF936C017A01EB01E60EF71E00E010E0F7
:101AD000CE15DF0561F06991D601ED91FC91019081
:101AE000F081E02DC6010995080F191FF1CFC8013B
:101AF000DF91CF911F910F91FF90EF90DF90CF90EA
:101B000008956115710581F0DB010D900020E9F762
:101B1000AD0141505109461B570BDC01ED91FC9181
:101B20000280F381E02D099480E090E008950C9408
:101B3000810DDC01ED91FC910190F081E02D099483
:101B40000F931F93CF93DF93EC016DE00E94990DEB
:101B50008C016AE0CE010E94990D800F911FDF91E8
:101B6000CF911F910F9108950F931F93CF93DF9300
:101B7000EC010E94810D8C01CE010E94A00D800F0E
:101B8000911FDF91CF911F910F9108958F929F9296
:101B9000AF92BF92CF92DF92EF92FF920F931F937B
:101BA000CF93DF93CDB7DEB7A1970FB6F894DEBF22
:101BB0000FBECDBF7C01C42EE52FCB01D22E19A2C2
:101BC00021E02D1510F02AE0D22E8E010F5D1F4F5F
:101BD0008D2C912CA12CB12C6C2D7E2FA501940164
:101BE0000E943B0F8C2DD29E8019112401501109A7
:101BF0008A3014F4805D01C0895CF801808321156E
:101C000031054105510521F0C22EE32FCA01E4CF71
:101C1000B801C7010E94810DA1960FB6F894DEBFEE
:101C20000FBECDBFDF91CF911F910F91FF90EF902D
:101C3000DF90CF90BF90AF909F908F900895211527
:101C4000310541F4DC01ED91FC910190F081E02D32
:101C5000642F09940C94C60D0F931F93CF93DF93B9
:101C6000EC019A01AB0160E070E00E941F0E8C0154
:101C7000CE010E94A00D800F911FDF91CF911F9187
:101C80000F910895CF93DF9300D000D0CDB7DEB78A
:101C90009B01AC01611571058105910569F06983AE
:101CA0003A834B835C830E94121129813A814B81D4
:101CB0005C810E945D0F03C060E070E0CB010F907B
:101CC0000F900F900F90DF91CF910895CF92DF92F8
:101CD000EF92FF926B017C016217730784079507EF
:101CE00064F4CA01B9016C197D098E099F090E942B
:101CF000420E6C0D7D1D8E1D9F1DFF90EF90DF909D
:101D0000CF900895FC01808191810C943410CF9381
:101D1000DF93EC0188819981009711F00E943410C3
:101D2000198218821D821C821B821A82DF91CF9138
:101D300008950F931F93CF93DF93EC018B016F5F97
:101D40007F4F888199810E942011009731F09983FB
:101D500088831B830A8381E001C080E0DF91CF91FB
:101D60001F910F910895CF93DF93EC0188819981A2
:101D7000892B29F08A819B818617970760F4CE0111
:101D80000E94990E882341F08C819D81892B19F442
:101D9000E881F981108281E0DF91CF910895EF927F
:101DA000FF920F931F93CF93DF93EC017B018A0186
:101DB000BA010E94B30E811104C0CE010E94870EA9
:101DC00007C01D830C83B701888199810E94FA1195
:101DD000CE01DF91CF911F910F91FF90EF90089569
:101DE000FC01118210821382128215821482611505
:101DF000710559F0FB0101900020E9F7AF01415056
:101E00005109461B570B0C94CF0E08950895991B4A
:101E100079E004C0991F961708F0961B881F7A95E1
:101E2000C9F780950895AA1BBB1B51E107C0AA1FE3
:101E3000BB1FA617B70710F0A61BB70B881F991F6B
:101E40005A95A9F780959095BC01CD01089597FB0F
:101E5000072E16F4009407D077FD09D00E94130FC7
:101E600007FC05D03EF4909581959F4F089570959D
:101E700061957F4F0895A1E21A2EAA1BBB1BFD019D
:101E80000DC0AA1FBB1FEE1FFF1FA217B307E40759
:101E9000F50720F0A21BB30BE40BF50B661F771FB1
:101EA000881F991F1A9469F7609570958095909591
:101EB0009B01AC01BD01CF010895052E97FB1EF4D7
:101EC00000940E94740F57FD07D00E943B0F07FC3F
:101ED00003D04EF40C94740F509540953095219595
:101EE0003F4F4F4F5F4F0895909580957095619546
:101EF0007F4F8F4F9F4F08950E948D0FA59F900D8C
:101F0000B49F900DA49F800D911D11240895EE0F94
:101F1000FF1F0590F491E02D0994A29FB001B39F9B
:101F2000C001A39F700D811D1124911DB29F700DE2
:101F3000811D1124911D0895CF93DF938230910567
:101F400010F482E090E0E0913A03F0913B0320E04E
:101F500030E0A0E0B0E0309739F14081518148177E
:101F60005907B8F04817590771F482819381109787
:101F700029F013969C938E9312972CC090933B0359
:101F800080933A0327C02115310531F042175307DA
:101F900018F0A901DB0101C0EF019A01BD01DF01C9
:101FA0000280F381E02DD7CF21153105F9F0281BF0
:101FB000390B2430310580F48A819B8161157105CC
:101FC00021F0FB019383828304C090933B038093B1
:101FD0003A03FE01329644C0FE01E20FF31F8193E3
:101FE000919322503109398328833AC020913803D4
:101FF00030913903232B41F42091020130910301E8
:10200000309339032093380320910001309101016E
:102010002115310541F42DB73EB74091040150918F
:102020000501241B350BE0913803F0913903E217C9
:10203000F307A0F42E1B3F0B2817390778F0AC01EB
:102040004E5F5F4F2417350748F04E0F5F1F5093C8
:102050003903409338038193919302C0E0E0F0E0AC
:10206000CF01DF91CF910895CF93DF93009709F4CB
:1020700087C0FC01329713821282C0913A03D0913B
:102080003B03209781F420813181280F391F8091F3
:102090003803909139038217930779F5F093390348
:1020A000E09338036DC0DE0120E030E0AE17BF07DB
:1020B00050F412964D915C9113979D014115510575
:1020C00009F1DA01F3CFB383A28340815181840FF8
:1020D000951F8A179B0771F48D919C911197840F1E
:1020E000951F02969183808312968D919C911397F0
:1020F000938382832115310529F4F0933B03E09308
:102100003A033EC0D9011396FC93EE9312974D917A
:102110005D91A40FB51FEA17FB0779F480819181C7
:10212000840F951F0296D90111969C938E938281FC
:10213000938113969C938E931297E0E0F0E08A814E
:102140009B81009719F0FE01EC01F9CFCE010296B8
:1021500028813981820F931F2091380330913903F0
:102160002817390769F4309729F410923B0310922D
:102170003A0302C013821282D0933903C09338030A
:10218000DF91CF9108958F929F92AF92BF92CF929D
:10219000DF92EF92FF92CF93DF93EC016881798118
:1021A0008A819B81611571058105910521F464E2A5
:1021B00079ED8BE597E02DE133EF41E050E00E94AF
:1021C0005D0F49015A019B01AC01A7EAB1E40E94ED
:1021D0007C0F6B017C01ACEEB4EFA50194010E9471
:1021E0000412C60ED71EE81EF91EF7FE06C081E0D7
:1021F000C81AD108E10880E8F80AC882D982EA82C0
:10220000FB82C701B6019F77DF91CF91FF90EF90DE
:10221000DF90CF90BF90AF909F908F9008950E94D5
:10222000C310089586E091E00E94C3100895609362
:1022300006017093070180930801909309010895A6
:10224000A0E0B0E0E6E2F1E10C940D12EC01CB016C
:10225000209719F40E949C0FB8C0FE01E60FF71FEB
:102260009E0122503109E217F30708F4ACC0D901EE
:102270000D911C91119706171707B8F0053011053D
:1022800008F49FC0A801445051094617570708F4A5
:1022900098C002501109061B170B019311936D93FF
:1022A0007C93CF010E9434108CC05B01A01AB10A4C
:1022B0004E01800E911EA0913A03B0913B03612C18
:1022C000712C60E070E0109709F449C0A815B905B9
:1022D000C9F5ED90FC901197670142E0C40ED11C46
:1022E000CA14DB0478F147018A189B08640142E0B4
:1022F000C40ED11C1296BC9012971396AC91B5E007
:10230000CB16D10440F0B282A38391828082D9019E
:102310008D939C9309C00E5F1F4F0E0D1F1DF90179
:1023200011830083EB2DFA2F6115710531F0DB016C
:102330001396FC93EE93129744C0F0933B03E09303
:102340003A033FC06D917C9111976616770608F4A9
:102350003B01BD0112960D90BC91A02DB4CF6091B0
:1023600038037091390368157905E9F46816790620
:10237000D0F440910001509101014115510541F403
:102380004DB75EB76091040170910501461B570B74
:10239000E417F507C0F4F0933903E0933803F9012B
:1023A000918380830EC00E949C0F7C01009759F09E
:1023B000A801BE010E94EA11CE010E943410C7019B
:1023C00004C0CE0102C080E090E0CDB7DEB7EEE001
:1023D0000C942912FB01DC0102C001900D924150C6
:1023E0005040D8F70895DC0101C06D934150504032
:1023F000E0F70895FB01DC0101900D920020E1F768
:102400000895B7FF0C947C0F0E947C0F821B930BE6
:1024100008952F923F924F925F926F927F928F9288
:102420009F92AF92BF92CF92DF92EF92FF920F9363
:102430001F93CF93DF93CDB7DEB7CA1BDB0B0FB66D
:10244000F894DEBF0FBECDBF09942A88398848882A
:102450005F846E847D848C849B84AA84B984C884C0
:10246000DF80EE80FD800C811B81AA81B981CE0FB7
:10247000D11D0FB6F894DEBF0FBECDBFED0108959C
:1024800010E0CCEBD0E004C0FE010E94890F229640
:0A249000CE3BD107C9F7F894FFCF47
:10249A0000003C0380000100000078050C0A4F038D
:1024AA00F888F800000000F80000E8A8B80000A8C2
:1024BA00A8F800003820F80000B8A8E80000F8A83A
:1024CA00E800000808F80000F8A8F80000B8A8F822
:1024DA000000000102030405060708094164616659
:1024EA00727569745F4E656F506978656C2D3E43ED
:1024FA006F6E7374727563746F7200416461667291
:10250A007569745F4E656F506978656C2D3E4465D8
:10251A007374727563746F72002D2D4265726569EA
:10252A00742D2D004D794C65644D61747269782D56
:10253A003E436F6E7374727563746F72004D794C9B
:10254A0065644D61747269782D3E44657374727561
:10255A0063746F7200706978656C733A2000506F0B
:10256A00736974696F6E3A2000436F6C6F723A2018
:10257A0000506F6E672D3E44657374727563746F95
:10258A007200506F6E672D3E436F6E73747275637F
:10259A00746F72006D6F6D656E74616E5F667265E1
:1025AA00693A200049207761732068657265005096
:1025BA006F6E672D3E5175697400536E616B652DA0
:1025CA003E436F6E7374727563746F7200536E61FB
:1025DA006B652D3E44657374727563746F72005334
:1025EA006E616B652D3E5265737461727400536E31
:1025FA00616B652D3E5175697400536E616B652D73
:10260A003E63726173682121210000000000D90B2A
:0A261A00590D5B0B740B660BB70B38
:00000001FF
