:100000000C9442010C9473010C9473010C947301D1
:100010000C9473010C9473010C9473010C94730190
:100020000C9473010C9473010C9473010C94730180
:100030000C9473010C9473010C9473010C94730170
:100040000C9473010C9473010C9473010C94730160
:100050000C9473010C9473010C9473010C9433058C
:100060000C9473010C9461080C9497080C94730120
:100070000C9473010C9473010C9473010C94730130
:100080000C9473010C9473010C9473010C94730120
:100090000C9473010C9473010C9473010C94730110
:1000A0000C9473010C9473010C9473010C94730100
:1000B0000C9473010C9473010C9473010C947301F0
:1000C0000C9473010C9473010C9473010C947301E0
:1000D0000C9473010C9473010C9473010C947301D0
:1000E0000C94730143064606350639063F067D0625
:1000F0004A064E06540658065C06620666066A06FE
:100100007D067006740678060C9462060C94C1088D
:100110000C944A060C94CB080C9435060C94F80603
:100120000C945C060C941E090C9439060C941A0766
:100130000C9454060C9458060C9478060C9474068F
:100140000C949A070C9446060C946A060C943F068D
:100150000C947D060C944E060C9406070C947006C5
:100160000C94E7030C9443060C9466060C94D40399
:100170000C94ED060C94780700000A0B02090C0D94
:100180000E0807030401000000000000000000004A
:10019000000000000000000000000000000000005F
:1001A000000000001211100000000000000000001C
:1001B000000000000000000000000000000001023C
:1001C0001020200808102040102040800201020169
:1001D0000804020101020408102040808040201021
:1001E000080402018004020180402010080402017A
:1001F00008040201010204081020408001020408E2
:1002000010204080050505050705080808080202BA
:1002100002020A0A080804040404010101010101A0
:1002200001010303030303030303040707070C0C83
:100230000C0C0C0C0C0C020202020606060606064A
:1002400006060B0B0B0B0B0B0B0B00002200250003
:1002500028002B002E0031003400020100000501AF
:1002600008010B0100002100240027002A002D00B6
:100270003000330001010000040107010A01D4032A
:10028000CB08E70311241FBECFEFD1E2DEBFCDBF05
:1002900000E00CBF13E0A0E0B2E0E2E4F7E100E030
:1002A0000BBF02C007900D92A63CB107D9F724E01E
:1002B000A6ECB3E001C01D92AE3FB207E1F712E039
:1002C000C2E8D2E000E006C022970109FE010BBFA0
:1002D0000E945D0ACE37D10780E00807A9F70E9487
:1002E0000F090C948F0B0C940000FF920F931F9337
:1002F000CF93DF93EC01F22E798368838B01000F9B
:10030000111F060F171F1B830A834C831D822B8727
:100310001C861D861E861F8650E0FA01EC5FFD4F8D
:10032000E491F0E0EE0FFF1FE65BFD4F85919491A5
:10033000998B888BFA01E254FE4F44914A8BC80195
:100340000E94610A9F838E83009729F0A80160E0D4
:1003500070E00E94880BF0FE04C081E08887198657
:100360000BC0F2FE06C081E0888782E089871A868A
:1003700005C0188681E0898782E08A87DF91CF9166
:100380001F910F91FF900895CF93DF93EC018E8121
:100390009F81009711F00E94F90A60E08C81DF9143
:1003A000CF910C947E06CF93DF93EC0161E08C81BA
:1003B0000E947E0660E08C81DF91CF910C94B7069D
:1003C000CF92DF92EF92FF920F931F93CF93DF9321
:1003D000CDB7DEB729970FB6F894DEBF0FBECDBFFD
:1003E0008C01DC0116968D919C911797892B09F44D
:1003F0009BC00E947D05F801C484D584E684F784FF
:100400006C197D098E099F0962337105810591057B
:1004100080F3F894828193819A838983A681B7813E
:100420007D01EFEFEE1AFE0A8C918987D8011B96A9
:100430009C911B9750960D90BC91A02DF80182893C
:1004400091FF2EC09C91982B98879C918095892331
:100450008F838F818E8388E08D8358856F81498556
:100460003D812E8189819A81F7015C9347FD252F7B
:100470003A952C93262F39F0441F00C000006C934E
:10048000000000C0F2CF38E041916C93000001976A
:1004900061F7F801B18BA08B49873D832E8338C06B
:1004A0009C91982B98879C91809589238F838F812D
:1004B0008C8388E08B8358856F8149853B812C81B3
:1004C00089819A81F7015C9347FD252F00C000C008
:1004D0002C9300C000C000C000C000C06C9300009E
:1004E000262F3A9541F0441F000000C000C000C014
:1004F00000C000C0E8CF38E0419100C06C9300C05C
:10050000019709F7F801B18BA08B49873B832C83B6
:100510009A83898378940E947D05D8011C966D93F7
:100520007D938D939C931F9729960FB6F894DEBF09
:100530000FBECDBFDF91CF911F910F91FF90EF9034
:10054000DF90CF9008950F931F93FC0180819181DC
:100550006817790738F58581882361F0489FA001E5
:100560001124452F289F90011124232F089F8001DB
:100570001124012FDB01AA0FBB1FA60FB71F868115
:1005800097818A0F9B1F3085DC01A30FB11D4C930F
:100590003185DC01A30FB11D2C932285FC01E20FF4
:1005A000F11D00831F910F910895FC0180819181BD
:1005B00068177907C0F49B01220F331F260F371FDE
:1005C00086819781820F931F2085DC01A20FB11DC8
:1005D0001C922185DC01A20FB11D1C922285FC0119
:1005E000E20FF11D10820895CF92DF92EF92FF92F9
:1005F0000F931F93CF93DF93FC0180819181681744
:10060000790788F5CA01AA27BB27082FC32ED42E45
:10061000E52EFF241C2DD22FC581CC2361F08C9FA9
:10062000C0011124092FCC9E600111241D2D2C9F87
:1006300090011124D32F9B01220F331F260F371F48
:1006400086819781820F931F2085DC01A20FB11D47
:100650000C932185DC01A20FB11D1C932285FC01A6
:10066000E20FF11DD083DF91CF911F910F91FF9089
:10067000EF90DF90CF900895CF93DF9300D01F923B
:10068000CDB7DEB7FC01808191816817790708F04A
:1006900043C09B01220F331F260F371F868197818E
:1006A000820F931F2085DC01A20FB11D2C91318593
:1006B000DC01A30FB11D4C9150E060E070E0762F9B
:1006C000652F542F4427622B2285DC01A20FB11D18
:1006D0008C91482B49835A836B837C832581222309
:1006E000B1F030E08981982F80E0B9010E94210AA1
:1006F00069838A81982F80E0B9010E94210A6A8368
:100700008B81982F80E0B9010E94210A6B83698157
:100710007A818B819C8103C060E070E0CB010F90F7
:100720000F900F900F90DF91CF910895FC0186817B
:1007300097810895CF92EF920F9326E040E855E21B
:1007400060E070E08DE594E00E94FF0786EC93E0A6
:100750000E94D30186EC93E00E94E001C12CE12CC1
:100760000FEF2FEF4FEF68E486EC93E00E945D04FB
:1007700086EC93E00E94E00161E086EC93E00E9449
:10078000AF0400E020E04FEF60E070E086EC93E023
:100790000E94A30264E670E080E090E00F91EF9089
:1007A000CF900C94A0050895EF920F9383E0E82E6C
:1007B000009107022091060240910802609109020F
:1007C00086EC93E00E94EB030F91EF90089586EC86
:1007D00093E00C94C401EF92FF920F931F93CF9379
:1007E000DF93EC01F62E142F622F402F2E2D70E098
:1007F0000E947501FB8A1C8BF19E102D11241D8B0C
:10080000DF91CF911F910F91FF90EF900895FC0120
:10081000248940FF04C08FEF820F861B01C0862F02
:1008200090E0429F800D911D11240895CF92DF9298
:10083000EF92FF920F931F93CF93DF938C01EB0105
:100840007A01DC0154964C91C42ED12CCB01B60117
:100850000E940D0AFC0160FF1DC08C199D09E41B5C
:10086000019611F0EF5F01C0E095D701EC93F8011C
:100870001389E12FF0E0CE01BF010E940D0AAC0107
:100880004E1B5F0B811B4F3F5F4F11F08F5F0AC004
:10089000809508C0D7018C93F801638970E0CE0180
:1008A0000E940D0AD9018C93DF91CF911F910F9176
:1008B000FF90EF90DF90CF9008956F927F928F928C
:1008C0009F92AF92BF92CF92DF92EF92FF920F93DF
:1008D0001F93CF93DF934C01F42ED22E702EA62EB1
:1008E000AA0CA60EB12CC501855F9D4F5C0110E0DE
:1008F000C0E0D0E0612E6E0CD501EC91FF27E7FD42
:10090000F0950C2E02C0F595E7950A94E2F7E0FF0A
:100910000DC04C2F4C0D662DC4010E940704072DFD
:100920002D2D4F2DBC01C4010E94A3022196C83079
:10093000D10511F78FEFA81AB80A1F5F1330C1F65F
:10094000DF91CF911F910F91FF90EF90DF90CF90AB
:10095000BF90AF909F908F907F906F9008956F920F
:100960007F928F929F92AF92BF92CF92DF92EF923F
:10097000FF920F931F93CF93DF931F921F92CDB7D8
:10098000DEB78C01662E0E949603782EA82EB92E13
:10099000F80185899A2D9719981708F050C06AE9CF
:1009A00073E08DE594E00E945C094AE050E0F501B7
:1009B00060818DE594E00E94DF0963EA73E08DE5D4
:1009C00094E00E945C094AE050E0B4018DE594E0B7
:1009D0000E94F609F50181905F01912CB401C801D4
:1009E0000E943C036B017C016EEA73E08DE594E0AC
:1009F0000E945C094AE050E06C2D8DE594E00E9475
:100A0000DF09B401C8010E94D5029E012F5F3F4F4C
:100A1000AE014E5F5F4FB401C8010E9416046A81A7
:100A2000660D4981C8010E940704A701960133277A
:100A300044275527BC01C8010E94F402A9CFC80170
:100A40000E94E0010F900F90DF91CF911F910F91C5
:100A5000FF90EF90DF90CF90BF90AF909F908F90DE
:100A60007F906F9008951F920F920FB60F921124EE
:100A70002F933F938F939F93AF93BF938091550490
:100A800090915604A0915704B091580430915404A9
:100A900023E0230F2D3720F40196A11DB11D05C0C1
:100AA00026E8230F0296A11DB11D209354048093C4
:100AB000550490935604A0935704B0935804809122
:100AC000590490915A04A0915B04B0915C04019682
:100AD000A11DB11D8093590490935A04A0935B0407
:100AE000B0935C04BF91AF919F918F913F912F91F3
:100AF0000F900FBE0F901F9018953FB7F8948091FC
:100B0000590490915A04A0915B04B0915C0426B5FD
:100B1000A89B05C02F3F19F00196A11DB11D3FBF35
:100B20006627782F892F9A2F620F711D811D911DC5
:100B300042E0660F771F881F991F4A95D1F70895E5
:100B4000CF92DF92EF92FF92CF93DF936B017C0104
:100B50000E947D05EB01C114D104E104F10489F088
:100B60000E940C0A0E947D056C1B7D0B683E734041
:100B700090F381E0C81AD108E108F108C851DC4FB0
:100B8000EACFDF91CF91FF90EF90DF90CF90089563
:100B9000789484B5826084BD84B5816084BD85B558
:100BA000826085BD85B5816085BDEEE6F0E080811F
:100BB00081608083E1E8F0E0108280818260808340
:100BC000808181608083E0E8F0E0808181608083C3
:100BD000E1EBF0E0808184608083E0EBF0E08081F5
:100BE00081608083E1E9F0E08081826080838081A0
:100BF00081608083E0E9F0E0808181608083E1EAC8
:100C0000F0E0808182608083808181608083E0EA7F
:100C1000F0E0808181608083E1E2F1E080818260A8
:100C20008083808181608083E0E2F1E08081816067
:100C30008083EAE7F0E08081846080838081826045
:100C4000808380818160808380818068808310922E
:100C5000C100089590E0FC013197E231F10508F000
:100C60004CC0EE58FF4F0C94570A809180008F774C
:100C700003C0809180008F7D8093800008958091D3
:100C80008000877FF9CF84B58F7702C084B58F7DD0
:100C900084BD08958091B0008F7703C08091B0002B
:100CA0008F7D8093B0000895809190008F7707C06A
:100CB000809190008F7D03C080919000877F80930A
:100CC000900008958091A0008F7707C08091A000C8
:100CD0008F7D03C08091A000877F8093A00008953E
:100CE000809120018F7707C0809120018F7D03C004
:100CF00080912001877F809320010895CF93DF9317
:100D000090E0FC01E254FE4F2491FC01EC5FFD4FAA
:100D10008491882349F190E0880F991FFC01EC59D8
:100D2000FD4FA591B491865B9D4FFC01C591D49177
:100D30009FB7611108C0F8948C91209582238C9301
:100D4000888182230AC0623051F4F8948C91322F4A
:100D5000309583238C938881822B888304C0F894F8
:100D60008C91822B8C939FBFDF91CF9108950F932D
:100D70001F93CF93DF931F92CDB7DEB7282F30E0BC
:100D8000F901E858FE4F8491F901E254FE4F1491A5
:100D9000F901EC5FFD4F04910023C9F0882321F095
:100DA00069830E942A066981E02FF0E0EE0FFF1FA1
:100DB000E65BFD4FA591B4919FB7F8948C916111BA
:100DC00003C01095812301C0812B8C939FBF0F908E
:100DD000DF91CF911F910F910895FC01818D228D9C
:100DE00090E0805C9F4F821B91098F739927089533
:100DF000FC01918D828D981731F0828DE80FF11DE5
:100E0000858D90E008958FEF9FEF0895FC01918DFF
:100E1000828D981761F0828DDF01A80FB11D5D965C
:100E20008C91928D9F5F9F73928F90E008958FEFCA
:100E30009FEF089581EC98E0892B41F080E090E0ED
:100E4000892B21F00E94C108811125C080E090E02B
:100E5000892B41F080E090E0892B21F00E94000076
:100E600081111CC080E090E0892B41F080E090E08F
:100E7000892B21F00E940000811113C080E090E0D6
:100E8000892BA1F080E090E0892B81F00E94000086
:100E900081110AC008950E940000D8CF0E9400006E
:100EA000E1CF0E940000EACF0C9400000895FC01FD
:100EB000848DDF01A80FB11DA35ABF4F2C91848DE3
:100EC00090E001968F739927848FA689B7892C9318
:100ED000A089B1898C9180648C93938D848D9813B3
:100EE00006C00288F389E02D80818F7D808308957C
:100EF000CF93DF93EC01888D8823C9F0EA89FB89C1
:100F0000808185FD05C0A889B9898C9186FD0FC0B7
:100F10000FB607FCF5CF808185FFF2CFA889B9898C
:100F20008C9185FFEDCFCE010E945707E7CFDF916F
:100F3000CF910895CF92DF92FF920F931F93CF939B
:100F4000DF931F92CDB7DEB76C01DC015B969C91FD
:100F50005B975C968C915C97981307C05096ED91C7
:100F6000FC915197808185FD32C0F601038D10E020
:100F70000F5F1F4F0F731127F02EF601848DF812AB
:100F800011C00FB607FCF9CFD6015096ED91FC9138
:100F90005197808185FFF1CFC60169830E94570771
:100FA0006981EBCF838DE80FF11DE35AFF4F60831A
:100FB000D6015B960C935B975296ED91FC915397FB
:100FC00080818062808381E058968C930DC0D60129
:100FD0005696ED91FC91579760835096ED91FC9158
:100FE000519780818064808381E090E00F90DF9151
:100FF000CF911F910F91FF90DF90CF900895BF92F6
:10100000CF92DF92EF92FF92CF93DF93EC016A01D0
:101010007B01B22EE889F98982E08083411581EE57
:10102000580761057105A1F060E079E08DE390E07B
:10103000A70196010E94350A215031094109510941
:101040005695479537952795211580E1380798F0F3
:10105000E889F989108260E874E88EE190E0A701E0
:1010600096010E94350A21503109410951095695CE
:10107000479537952795EC85FD853083EE85FF856F
:101080002083188EEC89FD89B082EA89FB898081F2
:1010900080618083EA89FB89808188608083EA8916
:1010A000FB89808180688083EA89FB8980818F7DCC
:1010B0008083DF91CF91FF90EF90DF90CF90BF9032
:1010C00008951F920F920FB60F9211240BB60F9234
:1010D0002F938F939F93EF93FF93E0916D04F09183
:1010E0006E048081E0917304F091740482FD12C05B
:1010F0009081809176048F5F8F732091770482179F
:1011000051F0E0917604F0E0E35AFB4F958F809325
:10111000760401C08081FF91EF919F918F912F9173
:101120000F900BBE0F900FBE0F901F9018951F923F
:101130000F920FB60F9211240BB60F922F933F937D
:101140004F935F936F937F938F939F93AF93BF93CF
:10115000EF93FF938DE594E00E945707FF91EF9185
:10116000BF91AF919F918F917F916F915F914F91BF
:101170003F912F910F900BBE0F900FBE0F901F90BD
:1011800018958DE594E00E94ED0621E0892B09F485
:1011900020E0822F08951092600410925F0488EE80
:1011A00093E0A0E0B0E08093610490936204A09388
:1011B0006304B09364048AEB93E090935E0480939D
:1011C0005D0485EC90E090936A048093690484EC5C
:1011D00090E090936C0480936B0480EC90E090938B
:1011E0006E0480936D0481EC90E090937004809382
:1011F0006F0482EC90E0909372048093710486EC0B
:1012000090E090937404809373041092760410928B
:1012100077041092780410927904089508950E943A
:10122000C8050E940E090E949A03CAE1D7E00E94F5
:10123000D3032097E1F30E941A07F9CFCF92DF92F0
:10124000EF92FF920F931F93CF93DF936C017A017C
:10125000EB01E60EF71E00E010E0CE15DF0561F0B1
:101260006991D601ED91FC910190F081E02DC601CC
:101270001995080F191FF1CFC801DF91CF911F9168
:101280000F91FF90EF90DF90CF9008956115710559
:1012900081F0DB010D900020E9F7AD0141505109CB
:1012A000461B570BDC01ED91FC910280F381E02D90
:1012B000199480E090E008950C944609DC01ED91CA
:1012C000FC910190F081E02D19940F931F93CF931F
:1012D000DF93EC016DE00E945E098C016AE0CE01B3
:1012E0000E945E09800F911FDF91CF911F910F9196
:1012F00008958F929F92AF92BF92CF92DF92EF921A
:10130000FF920F931F93CF93DF93CDB7DEB7A197D3
:101310000FB6F894DEBF0FBECDBF7C01C42EE52F03
:10132000CB01D22E19A221E02D1510F02AE0D22EE9
:101330008E010F5D1F4F8D2C912CA12CB12C6C2D8B
:101340007E2FA50194010E94350A8C2DD29E801912
:101350001124015011098A3014F4805D01C0895CA8
:10136000F8018083211531054105510521F0C22E78
:10137000E32FCA01E4CFB801C7010E944609A19634
:101380000FB6F894DEBF0FBECDBFDF91CF911F9196
:101390000F91FF90EF90DF90CF90BF90AF909F9014
:1013A0008F9008952115310541F4DC01ED91FC91F8
:1013B0000190F081E02D642F19940C9479090F931A
:1013C0001F93CF93DF93EC019A01462F50E060E02A
:1013D00070E00E94D2098C01CE010E946509800F45
:1013E000911FDF91CF911F910F9108950F931F933C
:1013F000CF93DF93EC019A01AB0160E070E00E94B3
:10140000D2098C01CE010E946509800F911FDF91E6
:10141000CF911F910F9108950895AA1BBB1B51E115
:1014200007C0AA1FBB1FA617B70710F0A61BB70B54
:10143000881F991F5A95A9F780959095BC01CD01F9
:10144000089597FB072E16F4009407D077FD09D076
:101450000E940D0A07FC05D03EF4909581959F4FA0
:101460000895709561957F4F0895A1E21A2EAA1BE9
:10147000BB1BFD010DC0AA1FBB1FEE1FFF1FA21744
:10148000B307E407F50720F0A21BB30BE40BF50B41
:10149000661F771F881F991F1A9469F760957095CA
:1014A000809590959B01AC01BD01CF010895EE0F91
:1014B000FF1F0590F491E02D19940790F691E02D0F
:1014C0001994CF93DF938230910510F482E090E07D
:1014D000E091FC04F091FD0420E030E0A0E0B0E0F9
:1014E000309739F14081518148175907B8F04817B2
:1014F000590771F482819381109729F013969C9378
:101500008E9312972CC09093FD048093FC0427C007
:101510002115310531F04217530718F0A901DB01FD
:1015200001C0EF019A01BD01DF010280F381E02DCE
:10153000D7CF21153105F9F0281B390B243031059F
:1015400080F48A819B816115710521F0FB019383F1
:10155000828304C09093FD048093FC04FE013296C4
:1015600044C0FE01E20FF31F819391932250310991
:10157000398328833AC02091FA043091FB04232B4D
:1015800041F420910202309103023093FB04209336
:10159000FA0420910002309101022115310541F435
:1015A0002DB73EB74091040250910502241B350B24
:1015B000E091FA04F091FB04E217F307A0F42E1B6C
:1015C0003F0B2817390778F0AC014E5F5F4F2417A7
:1015D000350748F04E0F5F1F5093FB044093FA0409
:1015E0008193919302C0E0E0F0E0CF01DF91CF91D1
:1015F0000895CF93DF93009709F487C0FC013297D9
:1016000013821282C091FC04D091FD04209781F4D2
:1016100020813181280F391F8091FA049091FB04B9
:101620008217930779F5F093FB04E093FA046DC0F9
:10163000DE0120E030E0AE17BF0750F412964D9166
:101640005C9113979D014115510509F1DA01F3CF22
:10165000B383A28340815181840F951F8A179B0712
:1016600071F48D919C911197840F951F029691832F
:10167000808312968D919C91139793838283211579
:10168000310529F4F093FD04E093FC043EC0D90138
:101690001396FC93EE9312974D915D91A40FB51F95
:1016A000EA17FB0779F480819181840F951F0296D8
:1016B000D90111969C938E938281938113969C936A
:1016C0008E931297E0E0F0E08A819B81009719F0F9
:1016D000FE01EC01F9CFCE01029628813981820FFB
:1016E000931F2091FA043091FB042817390769F4FD
:1016F000309729F41092FD041092FC0402C013826A
:101700001282D093FB04C093FA04DF91CF91089525
:10171000DC0101C06D9341505040E0F7089512E0A4
:10172000C2E8D2E000E006C022970109FE010BBF2B
:101730000E945D0AC438D10780E00807A9F7F89431
:02174000FFCFD9
:101742000000FE04800078050C0A0300000000007F
:101752000000000000000000000000000000000087
:101762000000000000000000000000000000000077
:101772000000000000000000000000000000000067
:101782000000000000000000000000000000000057
:101792000000000000000000000000000000000047
:1017A2000000000000000000000000000000005ED9
:1017B20000060006FFFFFF48D624461862FFFFFF1F
:1017C20000060038448282443814083E103810A0C3
:1017D20060001010106060006018067C427C447E3D
:1017E2004064524C4A4A3438247E4E4A323C4A3291
:1017F200621A06764A764C523C6C6C00AC6C001055
:101802002844282828442810FFFFFFFFFFFF7C12EE
:101812007C7C4A343C42427E423C7E4A427E0A0AF8
:101822003C52347E087E427E4230403E7E18667EC6
:1018320040407E1C7E7E027E3C423C7E120C7E62DA
:10184200FE7E324E444A32027E027E407E3E403E60
:101852003E7C3E6618660E700E625A46007E420656
:101862001860427E000402044040400002047454A6
:10187200787E483038444430487E3854487C0A02E6
:1018820098A47C7E0870487A4088FA007E18643EEC
:1018920040407C387C7C0478384438FC2418182476
:1018A200FC780404485424043E447C407C3C403C84
:1018B2003C783C6C106C9CA07C64544CFFFFFFFF96
:1018C200FFFFFFFFFFFFFFFFFFFFFFFFFFFFFFFF26
:1018D200FFFC407CFFFFFFFFFFFF706978656C73C0
:1018E2003A2000506F736974696F6E3A2000436F3B
:1018F2006C6F723A2000000000009A071E09ED0684
:061902000607F806780755
:00000001FF
